:020000040800F2
:10000000F00E0020054D0008D9010008DB010008B2
:10001000DF010008E3010008E7010008000000001C
:10002000000000000000000000000000EB010008DC
:10003000ED01000800000000EF010008F1010008D8
:100040001B4D00081B4D00081B4D00081B4D0008F0
:100050001B4D00081B4D00081B4D00081B4D0008E0
:100060001B4D00081B4D00081B4D00081B4D0008D0
:100070001B4D00081B4D00081B4D00081B4D0008C0
:100080001B4D00081B4D00081B4D00080000000020
:1000900000000000000000000000000085050008CE
:1000A0001B4D00081B4D00081B4D00081B4D000890
:1000B0001B4D0008950400081B4D00081B4D00084F
:1000C0001B4D00081B4D00081B4D00081B4D000870
:1000D0001B4D000863030008BD0300081D04000851
:1000E0001B4D00081B4D00081B4D000800000000C0
:1000F0000000000000000000000000000000000000
:1001000000000000000000000000000000000000EF
:1001100000000000000000001B4D00081B4D0008FF
:10012000DFF80CD005F0E6F800480047350100087C
:10013000F00E002000F090FA00F028FB00F0B1FB78
:1001400000201F498860C8600860486008618876A0
:10015000487600F00FFD00F092FD00F0D2FA00F0BA
:1001600099FE01F05AFC01F05CFB00201549087370
:1001700001F047FB642001F0C9FC0020124908701F
:1001800001F0ACFB05200F49887017E001F0A0FAE0
:1001900001F0DAFA80210D4803F07FF970B900BF51
:1001A0000B48006800F4E0600A490843001D084954
:1001B0000860BFF3408F00BF00BFFEE7E6E7000026
:1001C000C4080020B40800204400002000080140BA
:1001D0000CED00E00000FA05704700BFFEE700BF2D
:1001E000FEE700BFFEE700BFFEE7704770477047BD
:1001F00010B5ED48007820B1EC480088401CEB4970
:100200000880EB48007800281AD0EA480078401CA3
:10021000E849087008460078E7490988B0EB610FA3
:1002200019D1E6480078B0B9E548006800F0200030
:1002300038B10020DE490870DE490870DF490870D7
:100240008EE00020DB4908700120DC4908700020A6
:10025000DC49087084E0D7480078D749098888428B
:1002600024D1D6480078002820DDD4480078092819
:100270001CDAD54800784010D3490870D04800688F
:1002800000F0200048B10846007840F08000087077
:10029000CC480078401CCB4908700020C549087044
:1002A000C6480078401CC549087059E0C14800782C
:1002B000C1490988884212D1C048007809280ED166
:1002C000BF48006800F02000C04908700020B9490C
:1002D0000870BA480078401CB849087040E0B64839
:1002E00000880F2101EB6000B2490978884237D1BC
:1002F000B24800780A2833D1B148006800F02000E5
:1003000070B3B04A117801EBD1725210A1EB4202E6
:1003100012B9AE4A127852B1AA4A107800EBD072E4
:100320005210A0EB4202A2B1A84A12788AB1A848A2
:10033000007848B1A4490A78A6490888411CA54B11
:100340001980A5490A5404E09F480178A34802F0A7
:1003500042FA00209649087096490870974908703B
:1003600010BD10B540F225519D4804F087FC38B10E
:100370009B4804F003FCC4B221469A4802F02BFAD1
:1003800040F22771964804F079FCB0B19648048891
:10039000601C954A108095480068015D904804F003
:1003A000E9FB9148008892490988884205DB0022D0
:1003B00040F227718A4804F07CFB10BD10B540F272
:1003C00025518C4804F05AFC50B18A4804F0D6FB01
:1003D000C1B289480488601C874A1080874801554B
:1003E00040F22771834804F049FCB0B18448048886
:1003F000601C834A108083480068015D7D4804F0DA
:10040000B9FB7F48008880490988884205DB0022C3
:1004100040F22771774804F04CFB10BD10B540F254
:1004200025517A4804F02AFCB0B10020784948767A
:1004300078480088B0F5007F0BDA744804F09EFB22
:10044000C1B274480488601C724A10807248015519
:1004500002E06E4804F092FB40F227716B4804F012
:100460000DFCB0B16D480488601C6C4A10806C486B
:100470000068015D654804F07DFB684800886949B3
:100480000988884205DB002240F227715F4804F0AA
:1004900010FB10BD10B50121634804F01AFA0028C2
:1004A0006FD00121604804F025FA60480078E8B96F
:1004B0005F480078012819D05E480088401C5D49DB
:1004C000088008460088142831D1002008800121C6
:1004D0003B48083802F0EEFFC0F10100C4B22246EA
:1004E00001213748083802F0F6FF20E04F48007835
:1004F00001281CD14E480078012818D04D480088AA
:10050000401C4C4908800846008864280FD1002010
:10051000088001212A48083802F0CCFFC0F1010010
:10052000C4B2224601212648083802F0D4FF3848D8
:100530008068401C364988600846C068401CC86016
:1005400008460068401C086008460069401C0861B5
:100550000846807E012803D10846407E401C48762C
:100560003348007820B12A484068401C2849486038
:100570002748007E012804D125484069401C2449B1
:10058000486110BD10B5202002F09CFB58B120201E
:1005900002F0A9FB0448007828B90548007810B992
:1005A00001200349087010BD2D00002030000020FC
:1005B0002E000020360000203E00002037000020E2
:1005C0000808014039000020350000203A000020D2
:1005D000430000203C000020ED080020AC0000207B
:1005E00000380140B0020020140000200800002064
:1005F00020000020004400401A000020B404002025
:10060000180000200C0000202200002000480040BC
:10061000C40800201E000020B40600201C0000209A
:1006200010000020240000200004004044000020AE
:10063000260000204600002010B5002807DA0A072F
:10064000140EFE4A00F00F031B1FD45403E00A07E8
:10065000130EFB4A135410BD10B5012003F0E5F84A
:1006600000BF212003F09FF80028FAD0102002F0EC
:1006700057FB022002F040FB002003F002F90020AB
:1006800003F011F94FF4806003F004F94FF4801186
:10069000002003F0CDF8012003F0D6F800BF392088
:1006A00003F081F80028FAD0022003F0DCF800BF44
:1006B00003F0E2F80828FBD101214FF0C05003F00D
:1006C000B5F9012002F0CFFF0121042003F0A1F9C8
:1006D0000121082003F09DF90121084603F099F952
:1006E0000121480203F095F90121880303F091F9F3
:1006F0000121480403F09AF90121880403F096F9D6
:1007000010BD08B500214FF0006002F0CEF94FF4A3
:10071000A06002F093F927208DF8000002208DF8E8
:10072000010000208DF8020001208DF803006846CA
:1007300002F089F925208DF8000002208DF80100D3
:1007400001208DF802008DF80300684602F07BF965
:1007500026208DF8000002208DF801008DF802009F
:1007600001208DF80300684602F06DF91D208DF818
:10077000000002208DF8010003208DF80200012006
:100780008DF80300684602F05EF908BD08B5012146
:10079000042003F03EF90121082003F03AF94FF458
:1007A0000060ADF8000004208DF803006946A548FC
:1007B00002F0E0FD4FF48060ADF8000003208DF8FA
:1007C000020018208DF8030069469E4802F0D2FD11
:1007D0000220ADF800001C208DF8030003208DF8E6
:1007E00002006946984802F0C5FD0420ADF80000FB
:1007F00010208DF8030003208DF80200694692480E
:1008000002F0B8FD4FF40050ADF8000010208DF854
:10081000030003208DF8020069468A4802F0AAFD11
:100820004FF40051874802F052FE1020ADF800004E
:100830008DF803006946844802F09CFD102182482F
:1008400002F047FE41F20100ADF8000010208DF8E3
:10085000030003208DF8020069467B4802F08AFD00
:1008600041F20101784802F032FE0120ADF80000AB
:1008700010208DF8030003208DF8020069467148AE
:1008800002F078FDC020ADF8000004208DF80300D0
:1008900069466D4802F06EFD01216B4802F017FEBB
:1008A00008BD1FB54FF4966000904FF48050ADF82E
:1008B00004000020ADF806004FF48060ADF8080099
:1008C0000020ADF80C000C20ADF80A0069465F4826
:1008D00004F057F84FF4E13000904FF48050ADF839
:1008E00004000020ADF806004FF48060ADF8080069
:1008F0000020ADF80C000C20ADF80A006946544801
:1009000004F03FF80121524804F0C7F8012240F2F8
:1009100025514F4804F0CDF81FBD00B587B0022126
:100920004C4804F03DF902214A4804F031F94FF4F3
:100930000060ADF804000020ADF80600ADF8080036
:100940004FF48070ADF80A0001A9424804F08EF817
:100950004FF4FC5003904FF48050ADF810004FF46A
:100960004050ADF812004FF48060ADF814000C2038
:10097000ADF816000020ADF8180003A9354804F0C2
:1009800000F801222821334804F093F8012240F2B4
:100990002551304804F08DF801212E4804F07DF8EF
:1009A00001212C4804F010F901212A4804F000F933
:1009B00007B000BD1CB50221264804F0F1F8022161
:1009C000244804F0E5F80020ADF80000694621480D
:1009D00004F04CF8002228211E4804F06AF8002296
:1009E00040F225511B4804F064F80021194804F036
:1009F00054F80021174804F0E7F80021154804F0E6
:100A0000D7F81CBD7FB505460E46144600961CB9A6
:100A10000020ADF8040003E04FF48050ADF804006E
:100A20000020ADF80600ADF80840ADF80C000C2031
:100A3000ADF80A00012D13D0022D0DE018ED00E0F5
:100A400000E400E0000C01400008014000380140D3
:100A5000004800400044004015D0032D39D125E066
:100A60000021F94804F019F86946F74803F089FFB6
:100A70000121F54804F011F8012240F22551F24815
:100A800004F017F826E00021F04804F006F8694663
:100A9000EE4803F076FF0121EC4803F0FEFF01224F
:100AA00040F22551E94804F004F813E00021E84839
:100AB00003F0F3FF6946E64803F063FF0121E448D1
:100AC00003F0EBFF012240F22551E14803F0F1FF72
:100AD00000E000BF00BF7FBD70B505460C46002C8E
:100AE00013DD0020DB490880DB480480DB4805601B
:100AF000012240F22771D44803F0DBFF00BFD54844
:100B00000088D54909888842F9D170BD70B505467D
:100B10000C46002C13DD0020D1490880D148048008
:100B2000D1480560012240F22771C84803F0C1FF97
:100B300000BFCB480088CB4909888842F9D170BDF5
:100B400070B505460C46002C13DD0020C74908800F
:100B5000C7480480C7480560012240F22771BC489D
:100B600003F0A7FF00BFC1480088C1490988884237
:100B7000F9DB70BD00B587B00121084602F056FFD1
:100B80000121022002F052FF40F27720ADF814005C
:100B90000020ADF81000ADF81600ADF8120004A961
:100BA0004FF0804003F070F86020ADF800000120A5
:100BB000ADF8020040F23B10ADF806000220ADF89F
:100BC00008006946400703F0DEF80821C80603F074
:100BD000F0FC0121880703F0B3FC00214FF08040B6
:100BE00003F0AEFB1320ADF8140042F6DF60ADF861
:100BF00010000020ADF81600ADF8120004A99E48C0
:100C000003F042F8012211469B4803F0B4FB012196
:100C1000994803F095FB07B000BD00B587B040F2DE
:100C20007720ADF814000020ADF81000ADF81600E4
:100C3000ADF8120004A94FF0804003F025F86020C1
:100C4000ADF800000120ADF8020040F23B10ADF815
:100C500006000220ADF808006946400703F093F84B
:100C60000821C80603F0A5FC0121880703F068FCF1
:100C700000214FF0804003F063FB07B000BD00B5DA
:100C800087B00121084602F0D1FE4FF4D670ADF8CE
:100C900014000020ADF81000ADF81600ADF81200F9
:100CA00004A94FF0804002F0EFFF6020ADF8000093
:100CB0000120ADF80200D620ADF806000220ADF804
:100CC00008006946400703F05EF80821C80603F0F3
:100CD00070FC0121880703F033FC00214FF08040B5
:100CE00003F02EFB07B000BD10B500214FF080408F
:100CF00003F026FB10BD10B50121880703F020FB8F
:100D000010BD10B5012002F00BFE00BF612002F003
:100D10004AFD0028FAD045F2555002F079FC062031
:100D200002F079FC40F2CF7002F078FC02F079FC1E
:100D300002F07CFC10BD1FB50121052002F069FE08
:100D40004020ADF80C0010208DF80F0003208DF826
:100D50000E0003A9494802F00DFB4021474802F06C
:100D6000B6FB2020ADF80C0048208DF80F000320C2
:100D70008DF80E0003A9414802F0FCFA20213F48FB
:100D800002F0A5FB0521002002F00AFC20200190C2
:100D900000208DF808000C208DF8090001208DF846
:100DA0000A0001A801F028FF17208DF8000000209C
:100DB0008DF801008DF8020001208DF803006846CF
:100DC00001F041FE1FBD08B517208DF8000000207E
:100DD0008DF801008DF802008DF80300684601F0DF
:100DE00032FE08BD08B517208DF8000000208DF8F0
:100DF00001008DF8020001208DF80300684601F023
:100E000022FE08BD10B57B2002F0CDFC48B102F0F7
:100E10003EFEFFF776FF44F22131142001F0A5FEDB
:100E200037E07D2002F0BFFC68B102F030FEFFF732
:100E300068FF142001F0A5FE41F23421884228D138
:100E400000F065FC25E01BE0003801400044004054
:100E5000004800401400002020000020080000206E
:100E600018000020220000200C0000201C000020A0
:100E70002400002010000020000400400008014071
:100E800002F005FEFFF73DFF4FF6FF71142001F061
:100E90006CFE10BD10B5734800687349B0FBF1F4E7
:100EA000B4F1807F01D3012011E024F07F40401E87
:100EB0004FF0E02148610F214FF0FF30FFF7BCFBFE
:100EC00000204FF0E021886107200861002008B170
:100ED00000BFFEE70421481FFFF7AEFB10BD01462F
:100EE0000A2291FBF2F302FB13120A2391FBF3F3A4
:100EF00042EA0312D0B27047014601F00F020B091B
:100F000003EB830302EB4302D0B2704730B59BB0D2
:100F100056A207CA18AB07C357A207CA15AB07C327
:100F2000142110A804F023F8282256A106A804F0E2
:100F300005F8002400200590049003900290019091
:100F400004A805AB10AA59A1009018A804F02CF829
:100F500003A802AB01AA58A1009015A804F024F838
:100F600010A906A804F00EF806A9401A032190FB68
:100F7000F1F0441C0599C8B2FFF7B1FF5149C870A0
:100F8000E0B2FFF7ACFF4F49887020200870642161
:100F9000049890FBF1F201FB1200C5B22846FFF75E
:100FA0009EFF484948700199C8B2FFF798FF45492C
:100FB00008710299C8B2FFF792FF4249487103993C
:100FC000C8B2FFF78CFF3F4988711BB030BD10B528
:100FD000FFF755FEFFF78FFE4FF480513A4802F0BD
:100FE00078FA0020394908703949087001203949D8
:100FF000087010BD10B5FFF710FEFFF77CFE4FF430
:101000008051314802F065FA0020304908703049BB
:10101000087002202F49087010BD10B5FFF764FE5C
:101020004FF48051284802F052FA002029490870F4
:1010300010BD01202849087070470020264908701B
:10104000704710B5FFF769FC01202449087000F0D3
:1010500079FD10BD10B5FFF7ADFC00201F490870E9
:1010600010BD000098000020A08601004F6374208E
:10107000323920323031340031343A34323A343477
:10108000000000004A616E4665624D6172417072F7
:101090004D61794A756E4A756C4175675365704F3D
:1010A00063744E6F7644656300000000257320254D
:1010B000642025640000000025643A25643A256414
:1010C0000000000000000020000C01402D00002066
:1010D0002E0000204100002040000020420000209F
:1010E000704710B502460B460020002104E0545C16
:1010F0000444E0B24C1CE1B29942F8DB10BD00217F
:10110000FB4A1180002004E00021FA4A1154411CDE
:1011100088B2B0F5007FF7DB70472DE9F04100277A
:1011200000240026A046F2480088052802DA0020A4
:10113000BDE8F08106E0601C84B2B4F5FB7F01DD00
:10114000FFF7DDFFEB48005DA928F4D1E948005D19
:10115000A828F0D1E748005DA728ECD10120E64996
:10116000887600204876E349601C0D5C2819E04928
:101170000988884201DD0020DAE76019401EDD4958
:10118000085C162826D16019801E11F80080AA1E5E
:10119000D1B2D84A1019FFF7A4FF40451AD1002058
:1011A000D549887648760860D248005DD3490870F2
:1011B000281F0873002608E0A01C3044CD49095CB4
:1011C000CE48801C8155701C86B2CC48007BB04252
:1011D000F2DC01273846ABE770477047704770472D
:1011E00070477047704770477047704710B5C348E5
:1011F000807810B101280AD104E00121C04802F032
:1012000068F905E00121BE4802F061F900E000BF85
:1012100000BF10BD70B505460E46BA4800780128DB
:1012200001D0FFF7D4FE0120B74908700020B7496C
:1012300008701FE0B6480088B0F5617F04DA042129
:10124000B44802F044F915E0B1480088B0F5617F78
:101250000ADBAF48008840F24651884204DA042194
:10126000AC4802F036F905E00020A94908800120C9
:10127000A6490870A648008840F24651884203DC1F
:10128000A24800780028D5D02CE0A0480078401E65
:1012900045FA00F000F001049D480088382804DA7F
:1012A00004219C4802F013F91CE044B998480088D6
:1012B000702804DA0421974802F00BF912E0012C9F
:1012C00008D193480088E12804DA0421914802F00B
:1012D00000F907E000208E4908808C480078401C07
:1012E0008A4908708A480088E12807DC8748007826
:1012F000002803DD854800780528C6DB2CE08348FC
:101300000078401FE943014101F001048048008852
:10131000382804DA04217F4802F0D9F81CE044B9E7
:101320007B480088702804DA04217A4802F0D1F85A
:1013300012E0012C08D176480088E12804DA042163
:10134000744802F0C6F807E00020714908806F4831
:101350000078401C6D4908706D480088E12807DC62
:101360006A480078042803DD684800780928C6DB4D
:101370002CE066480078083846FA00F000F00104D6
:1013800063480088382804DA0421624802F09FF894
:101390001CE044B95E480088702804DA04215D48E6
:1013A00002F097F812E0012C08D159480088E12892
:1013B00004DA0421574802F08CF807E00020544971
:1013C000088052480078401C5049087050480088F6
:1013D000E12807DC4D480078082803DD4B480078F9
:1013E0001128C6DB2EE0494800780F384A490978B1
:1013F000C943014101F0010445480088382804DC54
:101400000421444802F063F81CE044B940480088D5
:10141000702804DC04213F4802F05BF812E0012C44
:1014200008D13B480088E12804DC0421394802F057
:1014300050F807E000203649088034480078401C06
:101440003249087032480088E12807DC2F480078CC
:10145000102803DD2D4800781928C4DB70BD70B555
:1014600005460E4627480078012801D0FFF7AFFD5A
:101470000120254908700020244908701EE02448F6
:101480000088B0F5C87F04DA0421224802F01FF872
:1014900014E01F480088B0F5C87F09DB1C480088AD
:1014A000B0F5487F04DA04211A4802F012F805E08A
:1014B000002017490880012014490870144800884A
:1014C000B0F5487F03DC114800780028D7D042E00F
:1014D0000E480078401E45FA00F000F001040C4868
:1014E000008832281ADA04210A4801F0F0FF32E0BD
:1014F0001E000020B4060020C4080020E0080020E0
:10150000000C0140410000202D000020330000208D
:1015100030000020000801402C00002044B9FD48A4
:1015200000888C2804DA0421FB4801F0D2FF12E085
:10153000012C08D1F7480088F02804DA0421F64885
:1015400001F0C7FF07E00020F2490880F348007867
:10155000401CF2490870EF480088F02807DCEF488B
:101560000078002803DDED4800780528B0DB2CE08A
:10157000EA480078401F46FA00F000F00104E54810
:101580000088322804DA0421E34801F0A0FF1CE0BF
:1015900044B9E04800888C2804DA0421DE4801F0D0
:1015A00098FF12E0012C08D1DA480088F02804DA0C
:1015B0000421D94801F08DFF07E00020D5490880BB
:1015C000D6480078401CD5490870D2480088F028D9
:1015D00007DCD2480078042803DDD04800780D28C5
:1015E000C6DB2CE0CD480078401EE943014101F004
:1015F0000104C8480088322804DA0421C64801F0F2
:1016000066FF1CE044B9C34800888C2804DA042132
:10161000C14801F05EFF12E0012C08D1BD480088EE
:10162000F02804DA0421BC4801F053FF07E0002051
:10163000B8490880B9480078401CB8490870B548D6
:101640000088F02807DCB54800780C2803DDB34893
:1016500000781128C6DB2EE0B04800780F38B0497A
:101660000978C943014101F00104AA4800883228E1
:1016700004DC0421A84801F02AFF1CE044B9A54875
:1016800000888C2804DC0421A34801F022FF12E02A
:10169000012C08D19F480088F02804DC04219E48D2
:1016A00001F017FF07E000209A4908809B48007866
:1016B000401C9A49087097480088F02807DC974832
:1016C0000078102803DD954800781928C4DB70BD28
:1016D00010B5FFF722FD012818D192480078A728FD
:1016E0000FD0A82807D0A9280ED18E488178FF20D6
:1016F000FFF7B5FE09E08B488178FF20FFF78AFDF0
:1017000003E0FFF773FD00E000BF00BF10BD10B5A0
:101710000121814801F0DDFEFFF7E6FA4FF4805128
:10172000814801F0D4FE4FF400517F4801F0CFFE14
:1017300001217D4801F0CDFE41F23421142001F059
:1017400014FA01F0BEFF10BD10B578484068784922
:10175000C978C1EB0111890001EBC10202EB011153
:10176000B0EB810F01D9FFF7D2FF704800687049D4
:101770008978C1EB0111890001EBC10202EB011173
:10178000B0EB810F01D9FFF7C2FF68488068684954
:10179000097901EBC10202EB0111B0EB810F05D910
:1017A00064480078012801D0FFF737FC5F48C16822
:1017B0005F48407900EBC00202EB0010B1EB800FF4
:1017C00001D9FFF73AFC5948807E012809D15748D2
:1017D000407E052805DD0020544988764876FFF7CD
:1017E0008EFC5248007E01280AD150484069B0F56D
:1017F0007A7F05D900204D4908764861FFF72AFC19
:1018000010BD10B54FF48051434801F060FE102127
:10181000414801F05EFE4FF40051434801F059FE8B
:1018200010BD10B54FF400513F4801F050FEFFF7D6
:10183000F4FBFFF702FCFFF70DFC10BD10B54FF4F1
:101840000051394801F043FE1021334801F03FFEBA
:10185000322000F05BF94FF40051334801F039FEBB
:1018600010BD10B510212C4801F033FE4FF400518B
:101870002D4801F02CFE10BD70470246002001E00B
:10188000431C98B28842FBDB704700212A4A118032
:10189000002004E00021294A1154411C88B2B0F50F
:1018A000007FF7DB704710B5FFF7CBFB00F0CBFEF6
:1018B00023490860FFF7CEFB10BD70B50446214DEB
:1018C0002146284601F04CFB1F4908700846007865
:1018D000042801D1012070BD0020FCE710B50024D0
:1018E00004E001F09EFE642000F010F980210A4817
:1018F00001F0D3FD30B92046611C8CB240F6B831FE
:101900008842EEDB40F6B83084421FDB0024FFF74C
:10191000FEFE1EE0300000200008014033000020E1
:101920002C000020E0080020000C0140C40800202A
:10193000B4080020430000201A000020B404002056
:1019400028000020FCFF0008480000200120544926
:10195000087010BD8CB00446182252A106A803F0EE
:10196000EDFA0025E07800F00F00E1780909A2788F
:1019700002F00F02A3781B09CDE90232CDE9041071
:10198000607800F00F0061780909CDE90010207837
:1019900000F00F03020949A106A803F08BFE002204
:1019A0004FF416410320FFF72DF8FFF747FF00BF64
:1019B00001F037FE681CC5B2FFF7A1FB4FF47A7047
:1019C00000F0A4F8172106A8FFF7BAF8642000F089
:1019D0009DF842A1424803F0D5FA00B101E0052D7F
:1019E000E6DB00BF00F04FF810B501F0A4F9352098
:1019F00001F03CFC3B4801F0E3F90A2000F086F8D6
:101A00003948FFF75AFF10BD364801683648814211
:101A100001D1012070470020FCE710B586B01822E4
:101A200032A1684603F08AFA0024FFF7EDFF40BBBD
:101A300000224FF416410320FEF7E4FFFFF7FEFEFD
:101A400000BF01F0EEFD601CC4B2FFF758FB4FF47D
:101A50007A7000F05BF814216846FFF771F8642093
:101A600000F054F81DA11E4803F08CFA00B101E00B
:101A7000052CE6DB00BF052C01DAFFF7B5FF00F00F
:101A800002F806B010BD1F48006800F4E0601E496F
:101A90000843001D1B490860BFF3408F00BFFEE7ED
:101AA0004400002041542B4E414D453D424F4F5381
:101AB0005430303030303030300D0A0041542B4E2D
:101AC000414D453D424F4F53542578257825782583
:101AD0007825782578257825780D0A004F4B000069
:101AE000B4060020FCFF00081110011141542B55D1
:101AF0004152543D3131353230302C302C320D0AC8
:101B0000000000000CED00E00000FA05002109E0F3
:101B1000002201E0531C9AB240F6B8339A42F9DB36
:101B20004B1C99B28142F3DB7047002107E0002291
:101B300001E0531C9AB2032AFBDB4B1C99B2814291
:101B4000F5DB704710B56420FFF7E0FF4FF48070BD
:101B5000FFF7DCFF6420FFF7D9FF10BD70B5044626
:101B60000D460020FA490880FA480580FA480460CA
:101B7000012240F22771F94802F09BFF00BFF448B0
:101B80000088F44909888842F9D170BD70B50546CE
:101B9000002404E00120FFF7B9FF601C84B2F04884
:101BA0000088A84202DCB4F5C87FF3DBB4F5C87F37
:101BB00001DB002070BD0120FCE72DE9F74FADF5FA
:101BC000027D0646934604250024002001908246AB
:101BD000FFF75BFE05213046FFF7C0FF0525BBF18F
:101BE000040F03D14FF0010800272CE0BBF1050FD3
:101BF00006D14FF00208377917BB4FF4807722E007
:101C0000BBF1060F03D137794FF003081BE0BBF19E
:101C1000070F0CD137793FB94FF00208B0797179CD
:101C200000EB012087B20EE04FF003080BE037799C
:101C30003FB94FF00308B079717900EB012087B20A
:101C400001E04FF0030800BF05EB0A0188B2FFF77F
:101C50009DFF012809D105EB0A00C24911F8009047
:101C60000AF101001FFA80FA00E056E0B9F1600FB6
:101C700000D150E009F0F000602803D009F0F00036
:101C8000902802D10120019047E07078484521D189
:101C9000B8F1020F12D100BF691C214488B2FFF7CE
:101CA00075FF681C2044AF49085C02A90855601CF8
:101CB00084B2781E80B20700EED12BE000BF70190D
:101CC0000121FFF74BFF681C85B2781E80B2070028
:101CD000F5D11FE0707889F0FF01884219D1B8F181
:101CE000020F0DD1691C214488B2FFF74FFF681C19
:101CF00020449C49085C02A90855601C84B205E098
:101D000070190121FFF72AFF681C85B2781E87B27F
:101D100000E002E000BF002F96D100BF019868B933
:101D2000691C214488B2FFF731FF681C20448D49AB
:101D3000085C02A90855601C84B204E002A800F8FF
:101D40000490601C84B2691C214488B2FFF71EFF16
:101D5000681C20448349085C02A90855601C84B2B1
:101D60004FF0000A09E002A810F80A10839800F862
:101D70000A100AF101001FFA80FAA245F3DBFFF70F
:101D800084FD20460DF5057DBDE8F08F10B586B0C9
:101D900075A103C9CDE90401052201A904A8FFF733
:101DA0000CFF9DF80C0090280FD19DF80D0060B934
:101DB000002405E001A8005D6D490855601CC4B20F
:101DC000082CF7DB012006B010BD0020FBE730B582
:101DD0008FB00546182267A109A803F0AFF86BA3DE
:101DE0000FCB05AC0FC46DA103C9CDE903010024DD
:101DF00008E0295DE01D09AA1154295D083011543D
:101E0000601CC4B2062CF4DB002406E05848015DD7
:101E1000601D05AA1154601CC4B2082CF6DB152203
:101E2000694609A8FFF7C9FE9DF8000090282CD14B
:101E30009DF8010048BB0D22694605A8FFF7BDFECD
:101E40009DF8000061281ED19DF8010008281AD1D4
:101E50000522694603A8FFF7B0FE9DF80800902808
:101E60000FD19DF8090060B9002405E01DF80400B9
:101E70004C490855601CC4B2082CF7DB01200FB098
:101E800030BD0020FBE70020F9E70020F7E730B580
:101E90008DB0054644A2D2E901311068D268CDE97F
:101EA0000A310C92099039A3D3E90020D3E9021337
:101EB00006AC0BC4059239A103C9CDE90301002486
:101EC00005E0295DE01D09AA1154601CC4B2062C6E
:101ED000F7DB002406E02648015D601D05AA1154C9
:101EE000601CC4B2082CF6DB1522694609A8FFF76E
:101EF00064FE9DF80000902863D19DF8010028BB86
:101F00000D22694605A8FFF758FE9DF800006128DC
:101F100055D19DF80100082851D10522694603A832
:101F2000FFF74BFE9DF80800902845D19DF8090069
:101F300068B9002405E01DF804001A490855601C22
:101F4000C4B2082CF7DB01200DB030BD39E033E01E
:101F500018000020220000200C0000200044004057
:101F60001A000020B40400200084000008000000D3
:101F70005100002080FA000110A7010000000000BD
:101F800012000000000000001200000080FA0000B3
:101F900008000000000000000000000000C0000079
:101FA000080000005900002080FA0003080000002B
:101FB000000000000000000000200DB030BD002037
:101FC000FBE70020F9E7002108E0FE48405CFE4AFC
:101FD000525C904200D003E0481CC1B20829F4DBF7
:101FE00000BF082901DA002070470120FCE730B566
:101FF0008DB00546F5A2D2E901311068D268CDE96D
:102000000A310C920990AFF27C03D3E90020D3E9A6
:10201000021306AC0BC40592AFF2800103C9CDE9EF
:102020000301002405E0295DE01D09AA1154601C8C
:10203000C4B2062CF7DB002406E0E848015D601D11
:1020400005AA1154601CC4B2082CF6DB152269469F
:1020500009A8FFF7B2FD9DF8000090282CD19DF84B
:10206000010048BB0D22694605A8FFF7A6FD9DF8B3
:10207000000061281ED19DF8010008281AD1052210
:10208000694603A8FFF799FD9DF8080090280FD135
:102090009DF8090060B9002405E01DF80400D0494E
:1020A0000855601CC4B2082CF7DB01200DB030BD10
:1020B0000020FBE70020F9E70020F7E710B58EB01D
:1020C000C8A2D2E901311068D268CDE90B310D9276
:1020D0000A90AFF24813D3E90020D3E9021307AC0A
:1020E0000BC40692AFF24C1103C9CDE904010024E0
:1020F00006E0C048015D601D0AAA1154601CC4B20C
:10210000082CF6DB002406E0B448015D601D06AA39
:102110001154601CC4B2082CF6DB152201A90AA8D0
:10212000FFF74BFD9DF8040090282CD19DF8050089
:1021300048BB0D2201A906A8FFF73FFD9DF804004A
:1021400061281ED19DF8050008281AD1052201A991
:1021500004A8FFF732FD9DF80C0090280FD19DF8E0
:102160000D0060B9002405E001A8005D9C490855F8
:10217000601CC4B2082CF7DB01200EB010BD00209B
:10218000FBE70020F9E70020F7E700219A4A1180D9
:10219000002004E00021994A1154411C88B2B0F596
:1021A000007FF7DB704770B505460E46FFF7EDFF81
:1021B000002404E0285DFFF75FFB601C84B2B4429A
:1021C000F8DB70BD70B50546002406E001F029FA81
:1021D0000120FFF79BFC601C84B287480088A8425E
:1021E00003DA40F6B8308442F0DB40F6B83084427F
:1021F00001DB002070BD0120FCE730B590B0044643
:102200000B463F2B02DD002010B030BD002104E062
:10221000605C0DF80100481CC1B29942F8DB002156
:1022200006E0581E401A1DF800005054481CC1B268
:102230009942F6DB0120E7E72DE9FC470646884690
:1022400091464FF0000A002540E0705D68283BD1C0
:10225000E81D305C682837D105F10900375CE819C2
:102260000C30404530DC05F109003844801C305CFE
:10227000162829D1681CC4B20BE0315D601B401EDA
:1022800019F80000814202D00120BDE8FC87601CE3
:10229000C4B2E81D8442F0DB2C4605E0305D5044BA
:1022A00000F0FF0A601CC4B205F109003844401C6C
:1022B000A042F3DC05F109003844401C305C504575
:1022C00001D00220E1E705E0681CC5B205F10C0071
:1022D0004045BADD00BF002409E005F114002044A8
:1022E000305C3338C0B20DF80400601CC4B2082C56
:1022F000F3DB404A08216846FFF77FFF002409E02E
:1023000005F11C002044305C3338C0B20DF80400E5
:10231000601CC4B2082CF3DB2B4A08216846FFF787
:102320006CFF002409E005F124002044305C3338C0
:10233000C0B20DF80400601CC4B2082CF3DB274ABD
:1023400008216846FFF759FF03209EE770B58AB061
:10235000054620222AA1684602F0F0FD002405E08F
:10236000295D601D0DF80010601CC4B2062CF7DB5F
:1023700008AA08212A48FFF740FF002409E008A81E
:10238000005D3330C1B204F116000DF80010601C7E
:10239000C4B2082CF3DB042409E09DF81E001DF8EC
:1023A00004100844C0B28DF81E00601CC4B21E2C7C
:1023B000F3DB20216846FFF7F6FE3220FFF702FF2D
:1023C00006462FE0590000207100002080FA00022C
:1023D000080000000000000012000000690000205A
:1023E0006100002080FA00040800000000000000E6
:1023F00012000000790000203C000020ED080020C1
:10240000FEFEFEFE68320000000000680310323657
:10241000B33A3935353B6FC23333EE6D3333001683
:1024200051000020C4480088C1B22A46C348FFF7C3
:1024300003FF30460AB070BDF0B503460D461646A0
:10244000002700213EE0585C682839D1C81D185C7F
:10245000682835D101F109001A5C88180C30A842AF
:102460002EDC01F109001044801C185C162827D1CD
:10247000481CC4B20AE013F804C0601A401E305C65
:10248000844501D00120F0BD601CC4B2C81D844247
:10249000F1DB0C4604E0185D3844C7B2601CC4B2DE
:1024A00001F109001044401CA042F4DC01F10900D4
:1024B0001044401C185CB84201D00220E3E705E05C
:1024C000481CC1B201F10C00A842BCDD00BF042AC7
:1024D00017DB01F109001044185C3A2811D101F111
:1024E00008001044185C33280BD1C81D1044185C38
:1024F000362806D1881D1044185C322801D10320EB
:10250000C1E70420BFE770B58CB0054620228CA13E
:1025100004A802F013FD002405E0295D601D04AA53
:102520001154601CC4B2062CF7DB6A46062128460B
:10253000FFF763FEFFF72AFC2846FFF707FF064672
:102540001EB9032630460CB070BD2846FFF73FFC8D
:10255000FFF739FD012837D12846FFF748FD02AAC9
:1025600008217F48FFF749FE002409E002A8005D2A
:102570003330C1B204F1160004AA1154601CC4B275
:10258000082CF3DB042409E09DF82E0004A9095D62
:102590000844C0B28DF82E00601CC4B21E2CF3DBC0
:1025A000202104A8FFF7FFFD1420FFF70BFE62486F
:1025B0000088C1B22A466148FFF73EFF032801D1D7
:1025C00000263EE002263CE02846FFF760FCFFF7CD
:1025D000FAFC012834D1FFF771FD02AA08216048F6
:1025E000FFF70BFE002409E002A8005D3330C1B202
:1025F00004F1160004AA1154601CC4B2082CF3DBC9
:10260000042409E09DF82E0004A9095D0844C0B225
:102610008DF82E00601CC4B21E2CF3DB202104A810
:10262000FFF7C1FD1420FFF7CDFD43480088C1B27C
:102630002A464248FFF700FF032802D1012600E0A6
:10264000022630467FE77FB546A103C9CDE90201E6
:1026500000250522694602A8FFF7AFFA9DF804009D
:1026600090280FD19DF8050060B9002408E01DF8FE
:102670000400E100C1F1180188400543601CC4B2A8
:10268000042CF4DB284604B070BD10B586B037A129
:1026900003C9CDE90401052201A904A8FFF78DFAB9
:1026A0009DF80C0090280CD19DF80D0048B900242D
:1026B00005E001A8005D2F490855601CC4B2082C34
:1026C000F7DB06B010BD3EB52BA103C9CDE9010172
:1026D00000240522694601A8FFF76FFA9DF8010062
:1026E000902804D19DF8020008B99DF800402046CA
:1026F0003EBD7CB506460D466A4606213046FFF7CC
:102700007CFDFFF743FB3046FFF761FB002404E04C
:102710001B48005D2855601CC4B2082CF8DB00245F
:1027200006E01848015D04F108002954601CC4B299
:10273000082CF6DB7CBD00003C000020ED080020EA
:10274000FEFEFEFE68310000000000680310323615
:10275000333A3935353B44444444444444440016F8
:102760006100002000B09A000400000000B0990150
:10277000080000004900002000B0920001000000A5
:1027800051000020590000200022A0F80022A0F8EB
:102790000222002103E0002242544A1C91B2B1F50A
:1027A000007FF8DB70470021A0F80012A0F80212A9
:1027B00070470146B1F80222501CB1F80022C3173D
:1027C00000EBD3535B12A0EB43239A4201D10120CB
:1027D00070470020FCE730B504460D462046FFF761
:1027E000E8FF012800D130BDB4F802022554B4F846
:1027F0000212481CC11700EBD1514912A0EB412134
:10280000A4F802120020EEE70146B1F80002B1F888
:102810000222904201D1022070470020FCE710B54F
:1028200003460C461846FFF7EFFF022800D110BD03
:10283000B3F80002185C2070B3F80012481CC117EE
:1028400000EBD1514912A0EB4121A3F80012002066
:10285000EDE770B503460E4615461846FFF7D4FF60
:10286000022800D170BDB3F80002B3F8021288420A
:102870001FDAB3F80202B3F80012401AA84201DAD4
:102880000320EFE7002406E0B3F800022044185CC0
:102890003055601C84B2AC42F6DBB3F80012481924
:1028A000C11700EBD1514912A0EB4121A3F800124E
:1028B0005CE0B3F80002B3F80212884256DDB3F8C8
:1028C0000002C0F50070B3F802120844A84201DA11
:1028D0000320C7E7B3F80002C0F50070A84216DD78
:1028E000002406E0B3F800022044185C3055601C58
:1028F00084B2AC42F6DBB3F800124819C11700EB02
:10290000D1514912A0EB4121A3F800122EE000247E
:1029100006E0B3F800022044185C3055601C84B215
:10292000B3F80002C0F50070A042F2DCB3F8000278
:10293000C0F5007084B20CE0B3F800120819C1179A
:1029400000EBD1514912A0EB4121595C3155601C7B
:1029500084B2AC42F0DBB3F800124819C11700EBA7
:10296000D1514912A0EB4121A3F80012002079E7D0
:1029700030B503460D461846FFF746FF022800D142
:1029800030BDB3F80002B3F80212884214DD00240F
:1029900006E0B3F800022044185C2855601C84B29D
:1029A000B3F80002C0F50070B3F802120844A04268
:1029B000EFDC1846FFF7E8FEB3F80002B3F80212A6
:1029C000884212DA002406E0B3F800022044185CC2
:1029D0002855601C84B2B3F80202B3F80012401A02
:1029E000A042F1DC1846FFF7CFFE0020C8E710B583
:1029F00003461846FFF708FF022801D100241AE019
:102A0000B3F80002B3F80212884208DDB3F80002FE
:102A1000C0F50070B3F80212084484B20BE0B3F8BA
:102A20000002B3F80212884205DAB3F80202B3F8E2
:102A30000012401A84B2204610BD00003149014303
:102A4000314A1160704770B5002100230F22C4780D
:102A500004B32D4C246804F4E064C4F5E064210A56
:102A6000C1F10403CA40447804FA03F184781440A5
:102A700021430901254C0678A155047804F01F056F
:102A80000124AC4005786D11AD0005F1E025C5F8D5
:102A9000004109E0047804F01F050124AC401C4DFE
:102AA0000678761145F8264070BD1A4A0A4002435E
:102AB000154B1B1F1A60704739B1134A121D12685B
:102AC0000243114B1B1D1A6006E00F4A121D1268CB
:102AD00082430D4B1B1D1A607047042808D14FF02C
:102AE000E021096941F004014FF0E022116107E0A3
:102AF0004FF0E021096921F004014FF0E02211615B
:102B0000704700000000FA050CED00E000E400E072
:102B100080E100E080FFFF1F10B5012000F0ADFF55
:102B2000002000F0AAFF10BD2A490860704729491B
:102B3000091F0860704727498431086070470146C3
:102B40000020254A10884FF67F4210400843224A51
:102B500010807047014600201F4A10884FF680728F
:102B6000104008431C4A1080704708B500220092AC
:102B7000194A2C3A0092009A02440092009A11607D
:102B800008BD08B501460020009013482C3800907D
:102B90000098084400900098008808BD0D489C30BB
:102BA0000068C0B270470C480830008840F001004F
:102BB00009490831088070470648A0300068C0B253
:102BC000704705480830008840F00200024908318B
:102BD0000880704704860D422C6C00400020444958
:102BE0000860091D0860091D0860091D086041484A
:102BF0003F4914310860704700213D498279002A1D
:102C00003AD00A46126803689A430B461A600A1DB6
:102C1000126803689A430B1D1A60027911440A680E
:102C200003681A430A60324A0832126803689A43FA
:102C30002F4B08331A601A1D126803689A432C4BF5
:102C40000C331A604279102A0ED11A1F12680368D9
:102C50001A43274B08331A601A1D126803681A4377
:102C6000234B0C331A600DE02149427911440A6864
:102C700003681A430A6005E0027911440A68036890
:102C80009A430A6070470021016001710C21417173
:102C90000021817170471649103109680143144AB7
:102CA00010321160704701460020114A1432126838
:102CB0000A400AB1012000E0002070470C4914319D
:102CC00008607047014600200022094B1B6803EA98
:102CD0000102074B14331B680B4013B10AB10120EA
:102CE00000E000207047024914310860704700007E
:102CF00000040140FFFF0F0001460020FE4A10685B
:102D000000F03800084310607047FB49096821F063
:102D10000801F94A116011460968014311607047C2
:102D2000F549096821F01001F34A1160114609685C
:102D3000014311607047F148EF494860F04848602E
:102D40007047EE48EC494860ED4848607047EA48F3
:102D5000006940F08000E84908617047E648006972
:102D600040F08000E449086170470420E249C968E6
:102D700001F0010109B101200EE0DF49C96801F04D
:102D8000040109B1022007E0DB49C96801F0100124
:102D900009B1032000E00420704700B50246042377
:102DA000FFF7E3FF034603E0FFF7DFFF0346521E92
:102DB000012B01D1002AF7D102B90523184600BD25
:102DC00030B5044604254FF43020FFF7E6FF0546F2
:102DD000042D17D1C848006940F00200C6490861B7
:102DE00008464461006940F0400008614FF430201B
:102DF000FFF7D3FF0546C048006941F6FD71084062
:102E0000BD490861284630BD10B504244FF4302078
:102E1000FFF7C3FF0446042C16D1B748006940F001
:102E20000400B54908610846006940F040000861A7
:102E30004FF43020FFF7B1FF0446AF48006941F678
:102E4000FB710840AC490861204610BD00B5024640
:102E50000423FFF78AFF034603E0FFF786FF0346DC
:102E6000521E012B01D1002AF7D102B905231846C1
:102E700000BD10B504244FF43020FFF7E7FF0446EF
:102E8000042C16D19C48006940F004009A4908615E
:102E90000846006940F0400008614FF43020FFF719
:102EA000D5FF04469448006941F6FB7108409249F9
:102EB0000861204610BD00208F49C96901F0020158
:102EC00009B1012000E00020704730B5A525042499
:102ED000FFF7F1FF00B100254FF43020FFF75DFF51
:102EE0000446042C3AD18548834988608448886028
:102EF0000846006940F0200008610846006940F07B
:102F0000400008614FF43020FFF747FF0446042CCF
:102F10001BD17948006941F6DF71084076490861A4
:102F20000846006940F01000086176480580E0021C
:102F3000FFF733FF0446052C10D06F48006941F6B7
:102F4000EF7108406C49086108E0052C06D06A481A
:102F5000006941F6EF71084067490861204630BDBD
:102F600078B506460C46042500200090E802FFF7DD
:102F700014FF0546042D24D15F48006940F001008C
:102F80005D4908613480E802FFF707FF0546042D1C
:102F900010D1B01C0090200C00990880E802FFF7C7
:102FA000FCFE05465448006941F6FE71084052494E
:102FB000086106E05048006941F6FE7108404E493C
:102FC0000861284678BD70B504460D460426F00217
:102FD000FFF7E3FE0646042E11D14748006940F092
:102FE0000100454908612580F002FFF7D6FE06463C
:102FF0004148006941F6FE7108403F49086130468A
:1030000070BD70B505460E460424E002FFF7C5FE0C
:103010000446042C17D139483749886038488860FD
:103020000846006940F0100008612E80E002FFF7BA
:10303000B4FE0446052C06D02F48006941F6EF7116
:1030400008402D490861204670BD2DE9F043044633
:103050004FF6FF763746B046B1460425E443E6B264
:10306000C4F30727C4F307484FEA1469E802FFF7DF
:1030700094FE0546042D49D120481F498860204808
:1030800088600846006940F010000861FF2E06D0F5
:103090001C4808300680E802FFF77FFE0546042D35
:1030A00008D1FF2F06D017480A300780E802FFF743
:1030B00074FE0546042D0AD1B8F1FF0F07D0114860
:1030C0000C30A0F80080E802FFF767FE0546042DEB
:1030D0000AD1B9F1FF0F07D00A480E30A0F80090CE
:1030E000E802FFF75AFE0546052D0FD00248006999
:1030F00041F6EF71084007E00020024023016745D8
:10310000AB89EFCD00F8FF1F664908612846BDE88E
:10311000F08330B5054604244FF43020FFF73DFE20
:103120000446042C41D160485E4988605F4888604D
:103130000846006940F0200008610846006940F038
:10314000400008614FF43020FFF727FE0446042CAE
:1031500022D15448006941F6DF71084051490861A5
:103160000846006940F0100008611DB10020504978
:10317000088002E0A5204E4908804FF43020FFF778
:103180000CFE0446052C10D04648006941F6EF714C
:1031900008404449086108E0052C06D04148006910
:1031A00041F6DF7108403F490861204630BDF0B567
:1031B00005460E46174604243B483A4988603B487A
:1031C0008860E002FFF7E9FD0446042C19D1354878
:1031D000006940F010003349086147F0F8003043BF
:1031E00028433349891C0880E002FFF7D6FD0446D6
:1031F000052C06D02B48006941F6EF71084029499B
:1032000008612046F0BD2748C069800870472548FE
:10321000006A704700202349096801F0200109B1C4
:10322000012000E00020704729B11E4A12690243C4
:103230001C4B1A6104E01B4A12698243194B1A6144
:10324000704701460020012908D1164AD26902F0D0
:1032500001020AB1012008E0002006E0114AD2680C
:103260000A400AB1012000E0002070470D49C86003
:10327000704704200B49C96801F0010109B1012020
:103280000EE00849C96801F0040109B1022007E015
:103290000449C96801F0100109B1032000E00420CD
:1032A000704700000020024023016745AB89EFCD45
:1032B00000F8FF1F10B50446CC48844208D1012114
:1032C000042000F0C0FB0021042000F0BCFB46E01D
:1032D000C748844208D10121082000F0B4FB002136
:1032E000082000F0B0FB3AE0C248844208D1012136
:1032F000102000F0A8FB0021102000F0A4FB2EE01D
:10330000BD48844208D10121202000F09CFB00210F
:10331000202000F098FB22E0B848844208D1012127
:10332000402000F090FB0021402000F08CFB16E0D4
:10333000B348844208D10121802000F084FB0021A1
:10334000802000F080FB0AE0AE48844207D10121D2
:10335000801500F078FB0021A01500F074FB10BD73
:1033600010B50121084600F06EFB0021012000F09D
:103370006AFB10BD2DE9F041024600250026002021
:1033800000230024002791F803C00CF00F0591F8EA
:1033900003C00CF0100CBCF1000F03D091F802C078
:1033A0004CEA050591F800C0BCF1000F31D014685B
:1033B00000202BE04FF0010C0CFA00F3B1F800C034
:1033C0000CEA03069E4220D183004FF00F0C0CFA4A
:1033D00003F7BC4305FA03FC4CEA040491F803C06C
:1033E000BCF1280F06D14FF0010C0CFA00FCC2F81A
:1033F00014C00AE091F803C0BCF1480F05D14FF0AA
:10340000010C0CFA00FCC2F810C0401C0828D1D3F3
:103410001460B1F800C0BCF1FF0F34DD5468002027
:103420002EE000F1080C4FF0010808FA0CF3B1F897
:1034300000C00CEA03069E4221D183004FF00F0C1E
:103440000CFA03F7BC4305FA03FC4CEA040491F8B8
:1034500003C0BCF1280F05D100F1080C08FA0CF8E4
:10346000C2F8148091F803C0BCF1480F07D100F1F5
:10347000080C4FF0010808FA0CF8C2F81080401C44
:103480000828CED35460BDE8F0814FF6FF7101806B
:10349000022181700421C1707047024600209368A8
:1034A0000B400BB1012000E0002070470146886806
:1034B00080B2704702460020D3680B400BB1012058
:1034C00000E0002070470146C86880B27047016183
:1034D0007047416170470AB1016100E04161704786
:1034E000C16070474FF480320A438261816182611A
:1034F00082698269704702460020434B18684FF684
:103500008073184040EA021008433F4B1860704730
:103510003E49C8617047F0B50A46002300240021E7
:10352000002500F00046B6F1004F02D1364EF16999
:1035300001E0354E7168C0F3034583B200F44016D4
:10354000B6F5401F08D121F070612F4E766826F045
:1035500070662D4F7E6012E000F48016B6F5801F75
:1035600006D1032606FA05F4A14341F0706106E096
:10357000460D360103FA06F6B14341F0706122B1FF
:10358000460D360103FA06F6314300F00046B6F167
:10359000004F02D11C4EF16101E01B4E7160F0BD85
:1035A00030B500228B071C0F0F2303FA04F2164BD1
:1035B00008338C1053F824309343134C08348D1087
:1035C00044F8253023468C1053F824308C07240F00
:1035D00000FA04F423430C4C08348D1044F82530D1
:1035E00030BD0A49DC310860704700000008014026
:1035F000000C01400010014000140140001801407F
:10360000001C014000200140000001400000204259
:103610000E49086070470D49486070470B49886043
:1036200070474AF6AA200949086070474CF6CC401A
:1036300006490860704701460020044AD2680A40E3
:103640000AB1012000E00020704700000030004077
:1036500010B50121080700F003FA00214FF0805057
:1036600000F0FEF910BD2A49086270472849086138
:10367000704701460020274A106820F0E000084308
:10368000106070472249A0310860704710B50246AB
:103690000020204B186820F00300104318601E4BD8
:1036A0001B6843F004031C4C2360012901D130BF87
:1036B00000E020BF184B1B6823F00403164C236066
:1036C00010BD1448006840F0040012490860084624
:1036D000006840F0020008600F48006840F00400F5
:1036E0000D49086000BF00BF30BF70470146002091
:1036F000084A52680A400AB1012000E000207047E1
:103700000449096841EA8001024A116070470000DB
:1037100000000E420070004010ED00E0E648006836
:1037200040F00100E449086008464068E349084069
:10373000E149486008460068E1490840DE49086000
:103740000846006820F4802008600846406820F49D
:10375000FE0048604FF41F0088600020C862704778
:10376000D549096821F48031D34A116011460968AE
:1037700021F480211160B0F5803F03D0B0F5802F97
:103780000ED106E0CC49096841F48031CA4A116083
:1037900007E0C949096841F4A021C74A116000E067
:1037A00000BF00BF704710B5014600220023002073
:1037B0004A11012A02D1C04C236806E0022A02D134
:1037C000BD4C236A01E0BC4C636A01F01F02012476
:1037D00094401C400CB1012000E0002010BD38B521
:1037E000002000900024002500BF3120FFF7DBFF00
:1037F00005460098401C00900098B0F5A06F01D0DD
:10380000002DF2D03120FFF7CEFF08B1012400E0F7
:103810000024204638BD01460020A74A106820F049
:10382000F80040EAC10010607047A6490860704780
:1038300002460020A04B586820F4741042EA0103AD
:1038400018439D4B586070479E4908667047024672
:103850000020994BD86A9C4B184042EA0103184358
:10386000954BD862704701460020934A506820F07B
:1038700003000843506070478F48406800F00C0018
:103880007047014600208C4A506820F0F000084341
:103890005060704701460020874A506820F4E0607D
:1038A00008435060704701460020834A506820F466
:1038B000605040EAC1005060704729B17E4A527A98
:1038C00002437D4B5A7204E07B4A527A82437A4B20
:1038D0005A7270477B49D831086070470146002012
:1038E000754A506820F440400843506070470021FA
:1038F000714A20321170704A82F82010012802D0DB
:1039000004280AD104E001216B4A2032117005E03D
:103910000521694A2032117000E000BF00BF7047E6
:103920006A49086070476449096A0143624A116242
:103930007047664944390860704770B5002100231C
:103940000024002200255C4E766806F00C0121B1AF
:10395000042905D0082921D105E05D4E066020E04C
:103960005B4E06601DE0544E766806F47013524EAE
:10397000766806F48034022606EB93431CB9554E54
:103980005E43066009E04C4EF66A06F00F06751CB1
:103990004F4EB6FBF5F65E43066002E04C4E066005
:1039A00000BF00BF444E766806F0F00109094A4E98
:1039B000725C0668D64046603F4E766806F4E06169
:1039C000090A454E725C4668D64086603A4E766873
:1039D00006F46051C90A404E725C4668D640C66023
:1039E000354E766806F44041890B3C4E725CC668E1
:1039F000B6FBF2F6066170BD29B12F4A5269024347
:103A00002D4B5A6104E02C4A526982432A4B5A6179
:103A1000704729B1284A92690243274B9A6104E012
:103A2000254A92698243244B9A61704729B1224A00
:103A3000D2690243204BDA6104E01F4AD269824313
:103A40001D4BDA61704729B11B4AD26802431A4BF9
:103A5000DA6004E0184AD2688243174BDA60704794
:103A600029B1154A12690243134B1A6104E0124A44
:103A700012698243104B1A6170471449403908603B
:103A800070471049C86470470B49C87170470A48AD
:103A9000406A40F080700849486270470146002043
:103AA000054A92680A400AB1012000E000207047F0
:103AB0000149887270470000001002400000FFF8C2
:103AC000FFFFF6FE00004242F0FFFEFF800442428C
:103AD00000127A0000093D008100002091000020C2
:103AE00010B50446FE48844208D10121C014FFF7F6
:103AF000AAFF0021E014FFF7A6FFC4E0B4F1804F55
:103B000008D101210846FFF7ABFF00210120FFF794
:103B1000A7FFB8E0F348844208D101210220FFF753
:103B20009FFF00210220FFF79BFFACE0EE4884429C
:103B300008D101210420FFF793FF00210420FFF7A3
:103B40008FFFA0E0E948844208D101210820FFF757
:103B500087FF00210820FFF783FF94E0E4488442B8
:103B600008D101211020FFF77BFF00211020FFF773
:103B700077FF88E0DF48844208D101212020FFF749
:103B80006FFF00212020FFF76BFF7CE0DA488442C2
:103B900008D101214014FFF756FF00216014FFF700
:103BA00052FF70E0D548844209D10121C804FFF7D3
:103BB0004AFF00214FF40020FFF745FF63E0D048A3
:103BC000844209D101210805FFF73DFF00214FF490
:103BD0008010FFF738FF56E0CA48844209D101211E
:103BE0004805FFF730FF00214FF40010FFF72BFFCF
:103BF00049E0C548844208D101214020FFF730FF49
:103C000000214020FFF72CFF3DE0C048844208D14E
:103C100001218020FFF724FF00218020FFF720FFF3
:103C200031E0BB48844208D101218015FFF718FF1D
:103C30000021A015FFF714FF25E0B648844209D102
:103C400001210804FFF7FFFE00214FF48030FFF749
:103C5000FAFE18E0B048844209D101214804FFF778
:103C6000F2FE00214FF40030FFF7EDFE0BE0AB4811
:103C7000844208D101218804FFF7E5FE00214FF4BA
:103C80008020FFF7E0FE10BD00220288944B98428E
:103C90000ED0994B98420BD0B0F1804F08D0914B89
:103CA000984205D0904B984202D0904B984204D154
:103CB0004FF68F731A404B881A438D4B984207D0AA
:103CC0008C4B984204D04FF6FF431A40CB881A43DE
:103CD00002808B8883850B880385814B98420BD0AB
:103CE000854B984208D08B4B984205D08A4B98421E
:103CF00002D08A4B984201D10B7A0386012383823A
:103D0000704770B5002400220023058C4FF6FE7624
:103D100035400584028C8388048B4FF68F752C40C8
:103D2000B51E2C400D882C43751E2A400D892A4350
:103D30004D882A436A4DA8420BD06F4DA84208D047
:103D4000744DA84205D0744DA84202D0734DA842CC
:103D500013D14FF6F7752A404D892A434FF6FB756C
:103D60002A408D882A434FF6FF652B404FF6FF55BA
:103D70002B408D892B43CD892B4383800483CD88B1
:103D80008586028470BD70B5002400220023058C56
:103D90004FF6EF7635400584028C8388048B48F615
:103DA000FF752C404FF6FF452C400D884FF6FF76EF
:103DB00006EA05252C434FF6DF752A400D8906EAF1
:103DC00005152A434D8806EA05152A43444DA842A5
:103DD00002D0494DA8421DD14FF67F752A404D892A
:103DE0004FF6FF7606EA05152A434FF6BF752A40BF
:103DF0008D8806EA05152A434FF6FF352B404FF212
:103E0000FF752B408D8906EA85052B43CD8906EA8F
:103E100085052B4383800483CD880587028470BD8C
:103E200070B5002400220023058C4FF6FF66354054
:103E30000584028C8388848B4FF68F752C404FF657
:103E4000FC752C400D882C434FF6FF552A400D89F8
:103E50004FF6FF7606EA05252A434D8806EA052532
:103E60002A431F4DA84202D0234DA8421DD14FF234
:103E7000FF752A404D894FF6FF7606EA05252A434D
:103E80004FF6FF352A408D8806EA05252A434EF66F
:103E9000FF752B404DF6FF752B408D8906EA051501
:103EA0002B43CD8906EA05152B4383808483CD8877
:103EB0008587028470BD70B5002200230024058C24
:103EC0004EF6FF7635400584038C8488828B48F655
:103ED000FF752A404FF6FF452A400D8820E000007C
:103EE000002C01400004004000080040000C00408D
:103EF000001000400014004000340140004C01401C
:103F0000005001400054014000180040001C0040D7
:103F100000200040004001400044014000480140B2
:103F20004FF6FF7606EA05252A434DF6FF752B402E
:103F30000D8906EA05352B434D8806EA05352B43E6
:103F4000FA4DA84202D0FA4DA84208D14BF6FF75AF
:103F50002C408D894FF6FF7606EA85152C43848028
:103F60008283CD88A0F84050038470BD828B4FF2CD
:103F7000FF331A408283828B4FF6FF7303EA0123DB
:103F80001A4382837047F0B50C4615460022002183
:103F90000026078C4EF6FF7C07EA0C070784828B0D
:103FA000018C4FF6FF7707EA043640F6FF473A40A8
:103FB0004FF6FF7707EA05273A434FF6FF7707EA00
:103FC00003373A43D94FB8420ED0D94FB8420BD03D
:103FD000B0F1804F08D0D74FB84205D0D64FB84285
:103FE00002D0D64FB84206D14DF6FF77394046F49D
:103FF0008057394305E047F6FF57394044F480576E
:10400000394382830184F0BD828B4FF6F3731A40EB
:104010008283828B0A4382837047F0B50C46154633
:10402000002200210026078C4FF6FF6C07EA0C07E0
:104030000784828B018C4FF6FF7707EA04264FF640
:104040000C773A404FF6FF7707EA03172F433A43BE
:10405000B64FB8420ED0B64FB8420BD0B0F1804F39
:1040600008D0B44FB84205D0B34FB84202D0B34FD6
:10407000B84206D14FF6FF57394046F480773943AE
:1040800005E04FF2FF57394044F48077394382838B
:104090000184F0BD028B4FF2FF331A400283028B82
:1040A0004FF6FF7303EA01231A4302837047F0B50A
:1040B0000C461546002200210026078C4FF6EF7CA7
:1040C00007EA0C070784028B018C4FF6FF7707EA9B
:1040D000041640F6FF473A404FF6FF7707EA0337EA
:1040E0003A434FF6FF7707EA05273A438F4FB84226
:1040F0000ED08F4FB8420BD0B0F1804F08D08D4F0B
:10410000B84205D08C4FB84202D08C4FB84206D18D
:104110004FF6DF77394046F01007394305E04FF698
:104120005F77394044F01007394302830184F0BDC2
:10413000028B4FF6F3731A400283028B0A43028309
:104140007047F0B50C46154600220021068C4FF64C
:10415000FE773E400684028B018C4FF60C7632408F
:104160007E1C06EA03162E433243704EB0420ED038
:104170006F4EB0420BD0B0F1804F08D06D4EB042C0
:1041800005D06D4EB04202D06C4EB04206D14FF613
:10419000FD76314044F00106314305E04FF6F576F7
:1041A000314044F00106314302830184F0BD70B513
:1041B00005460C465D4885420ED05D4885420BD0D1
:1041C000B5F1804F08D05B48854205D05A488542FA
:1041D00002D05A48854200D100E000BF208850B983
:1041E0002389A28861882846FFF7ABFFE18828462B
:1041F000FFF79EFF25E0208804280AD12389A288A2
:1042000061882846FFF753FFE1882846FFF742FF01
:1042100017E0208808280AD12389A28861882846C7
:10422000FFF7FBFEE1882846FFF7EEFE09E0238951
:10423000A28861882846FFF7A6FEE1882846FFF796
:1042400095FE70BD2DE9F04105460C46002601277C
:10425000608808B9022600E00026A088012801D164
:10426000022700E001272088A0B92389A28861885D
:104270002846FFF766FFE1882846FFF759FF2389A4
:104280003A4631462846FFF712FFE1882846FFF7F5
:1042900001FF13E02389A28861882846FFF707FF02
:1042A000E1882846FFF7F6FE23893A46314628463C
:1042B000FFF747FFE1882846FFF73AFFBDE8F081A6
:1042C0000A884B881A438B881A43CB881A430B8978
:1042D0001A434B891A438B891A43A0F8442070472C
:1042E0004FF6FF71818000210180C1804180017201
:1042F00070470021018041808180C180018141811E
:104300008181C1817047002101804180012181802C
:104310000021C1800181704700210180418081809E
:10432000C18001814181818170470000002C0140E2
:10433000003401400004004000080040000C004030
:1043400021B1028842F00102028004E002884FF6A7
:10435000FE731A400280704731B1B0F8442042F435
:104360000042A0F8442005E0B0F84420C2F30E0259
:10437000A0F8442070471AB183890B43838102E07F
:1043800083898B43838170478182704741EA0203AE
:10439000A0F8483070471AB183890B43838102E04B
:1043A00083898B438381704701894FF6F8721140EE
:1043B000018170470A46002101894FF68F73194029
:1043C00011430181704730B504460D462946204609
:1043D000FFF7F0FF208940F00700208130BD2DE974
:1043E000F04104460D4616461F46602D06D13B4659
:1043F000012231462046FFF75AFE05E03B460122E6
:1044000031462046FFF79DFE29462046FFF7D2FFA2
:10441000208940F007002081BDE8F08130B50C46CE
:1044200000210189C9B24FF6FF7505EA032515433E
:1044300025432943018130BD2DE9F04105460E4653
:1044400017469846002443463A4631462846FFF729
:10445000E5FF2C894FF6F870044044F007044FF64E
:104460008F70044044F070042C81BDE8F081F0B5F9
:1044700004460D4616461F463B4632462946204610
:10448000FFF7CCFF208940F480402081F0BD0185FA
:10449000828270470A46002101884FF68F731940C7
:1044A000114301807047F0B50C4615461E460021A9
:1044B000002200230189028B038C4FF6F8773940E4
:1044C00021434FF6FC473A4040F201173A434FF67A
:1044D000DD773B404FF6FF7707EA06172F433B4354
:1044E000018102830384F0BD0A460021018B4FF64F
:1044F0008F7319401143018370470A460021018BD5
:1045000048F6FF7319404FF6FF7303EA022319437D
:10451000018370470A460021818B4FF68F73194043
:104520001143818370470A460021818B48F6FF734F
:1045300019404FF6FF7303EA022319438183704742
:1045400021B1028842F08002028004E002884FF626
:104550007F731A400280704721B1828842F00402C2
:10456000828004E082884FF6FB731A408280704795
:1045700021B1828842F00802828004E082884FF6EE
:10458000F7731A408280704721B1828842F001029D
:10459000828004E082884FF6FE731A408280704762
:1045A0000A460021018B4FF6F7731940114301832E
:1045B00070470A460021018B4FF2FF7319404FF6F6
:1045C000FF7303EA02231943018370470A4600215F
:1045D000818B4FF6F77319401143818370470A4668
:1045E0000021818B4FF2FF7319404FF6FF7303EAEE
:1045F00002231943818370470A460021018B4FF63D
:10460000FB7319401143018370470A460021018B57
:104610004FF6FF3319404FF6FF7303EA02231943A5
:10462000018370470A460021818B4FF6FB731940C6
:104630001143818370470A460021818B4FF6FF3377
:1046400019404FF6FF7303EA022319438183704731
:104650000A460021018B4FF67F73194011430183F5
:1046600070470A460021018BC1F30E014FF6FF731C
:1046700003EA02231943018370470A460021818B14
:104680004FF67F7319401143818370470A4600211A
:10469000818BC1F30E014FF6FF7303EA0223194326
:1046A000818370470A460021018C4FF6FD73194043
:1046B0001143018470470A460021018C4FF6F773BD
:1046C00019401143018470470A460021018C4FF6BE
:1046D000DF7319404FF6FF7303EA02131943018495
:1046E00070470A460021018C4FF67F7319404FF640
:1046F000FF7303EA02131943018470470A4600213D
:10470000018C4FF6FF5319404FF6FF7303EA022363
:104710001943018470470A460021018C4FF2FF7350
:1047200019404FF6FF7303EA0223194301847047CF
:104730000A460021018C4DF6FF7319404FF6FF73B6
:1047400003EA023319430184704730B50023012482
:104750008C40A3B2048C9C430484048C02FA01F5BF
:10476000ADB22C43048430BD30B5002304248C400A
:10477000A3B2048C9C430484048C02FA01F5ADB20C
:104780002C43048430BD70B5034600200024184635
:10479000183001258D40ACB21D8CA5431D8409B194
:1047A000082909D100EB6100056825F07005056056
:1047B0000568154305600EE00D1FC5F34E0528443E
:1047C000056825F4E045056005684FF6FF7606EAC2
:1047D00002263543056070BD21B1028842F0020215
:1047E000028004E002884FF6FD731A400280704791
:1047F00021B1028842F00402028004E002884FF6F0
:10480000FB731A400280704721B1828842F0800217
:10481000828004E082884FF67F731A40828070475E
:1048200002884FF6F7731A40028002880A4302801A
:10483000704782884FF68F731A40828082880A43BD
:104840008280704702894FF6F8731A40028102890C
:104850000A430281704702894FF67F731A40028132
:1048600002890A43028170478184704781857047BD
:10487000818670470187704781877047A0F8401094
:10488000704702884FF6FF431A40028002880A43AD
:10489000028070470146888E70470146088F704736
:1048A0000146888F70470146B1F8400070470146C5
:1048B000888C70470146088D704702460020138A95
:1048C0000B400BB1012000E000207047CA43028278
:1048D000704730B50246002000230024158A05EAFF
:1048E0000103958905EA010413B10CB1012000E030
:1048F000002030BDCA4302827047000010B5044654
:10490000FB48844209D101218803FFF79CF800216C
:104910004FF48040FFF797F832E0F648844209D11F
:1049200001214804FFF79CF800214FF40030FFF705
:1049300097F825E0F048844209D101218804FFF767
:104940008FF800214FF48020FFF78AF818E0EB4839
:10495000844209D10121C804FFF782F800214FF4F5
:104960000020FFF77DF80BE0E548844208D10121E3
:104970000805FFF775F800214FF48010FFF770F875
:1049800010BD2DE9F04786B005460E460024A2462C
:1049900000BFA1460027B08900B100BF2F462C8A76
:1049A0004CF6FF700440F08804432C82AC894EF62C
:1049B000F3100440B08831890843718908430443E7
:1049C000AC81AC8A4FF6FF400440B0890443AC820E
:1049D00001A8FEF7B2FFC648874202D1DDF810A059
:1049E00001E0DDF80CA0A88900F4004040B10AEB1A
:1049F000CA0000EB0A1031684900B0FBF1F807E08B
:104A00000AEBCA0000EB0A1031688900B0FBF1F82C
:104A10006420B8FBF0F004012009642101FB108937
:104A2000A88900F4004040B1322000EBC900B0FB7F
:104A3000F1F000F00700044308E0322000EB091019
:104A40006421B0FBF1F000F00F0004432C8106B0AC
:104A5000BDE8F0874FF41651016000218180C180CC
:104A600001810C21418100218181704710B50246EE
:104A70000020108A4FF2FF0318400B884C88234314
:104A80008C882343CC8823431843108210BD002117
:104A9000018041808180C180704721B1828942F4C8
:104AA0000052828104E082894DF6FF731A408281B0
:104AB0007047F0B50346002400260025002040F68C
:104AC0006A17B94200D100BF1846C1F3421401F081
:104AD0001F06012707FA06F5012C01D10C3004E06E
:104AE000022C01D1103000E014301AB107682F43B6
:104AF000076002E00768AF430760F0BD1AB1838A20
:104B00000B43838202E0838A8B4383827047028A4D
:104B10004FF6F0731A400282028A0A4302827047FB
:104B200082894FF2FF731A40828182890A4382810F
:104B3000704721B1828942F00202828104E08289B9
:104B40004FF6FD731A4082817047028A4FF6DF7379
:104B50001A400282028A0A430282704721B1028A05
:104B600042F48042028204E0028A4BF6FF731A404C
:104B700002827047C1F3080282807047014688882C
:104B8000C0F308007047818941F0010181817047BD
:104B9000028BD2B20283028B42EA01220283704767
:104BA000028B02F47F420283028B0A430283704726
:104BB00021B1828A42F02002828204E0828A4FF68A
:104BC000DF731A408282704721B1828A42F010025C
:104BD000828204E0828A4FF6EF731A408282704725
:104BE00021B1828A42F00802828204E0828A4FF672
:104BF000F7731A408282704721B1828942F40042E1
:104C0000828103E08289C2F30E028281704721B162
:104C1000828A42F40062828204E0828A4FF2FF7349
:104C20001A4082827047828A4FF6FB731A40828252
:104C3000828A0A438282704721B1828A42F002024C
:104C4000828204E0828A4FF6FD731A4082827047A6
:104C500002460020B1F5007F00D100BF13880B4051
:104C60000BB1012000E00020704701F40072B2F5A2
:104C7000007F00D100BFCA430280704770B5024672
:104C8000002400230025002040F66A16B14200D11E
:104C900000BFC1F3421501F01F03012606FA03F31A
:104CA000012D02D19689334006E0022D02D1168AE9
:104CB000334001E0968A33400C12012606FA04F4D0
:104CC0001688344013B10CB1012000E0002070BD03
:104CD00010B50022002340F66A14A14200D100BFA3
:104CE0000A1201249440A3B2DC43048010BD0000EA
:104CF000003801400044004000480040004C0040A3
:104D00000050004005480047FEE7FEE7FEE7FEE7EB
:104D1000FEE7FEE7FEE7FEE7FEE7FEE7210100080B
:104D20001CB50020019000907C48006840F4803061
:104D30007A49086000BF7948006800F400300090AC
:104D40000198401C0190009818B90198B0F5A06F27
:104D5000F1D17248006800F4003010B101200090D9
:104D600001E0002000900098012832D16B48406893
:104D70006A4948600846406848600846406848609C
:104D80000846406820F47C1048600846406840F4BB
:104D9000981048600846006840F08070086000BFC6
:104DA0005E48006800F000700028F9D05B48406859
:104DB00020F00300594948600846406840F002006E
:104DC000486000BF5548406800F00C000828F9D141
:104DD00030E0FEF7A3FC0120FEF727FD00BF2120F5
:104DE000FEF7E1FC0028FAD01020FDF799FF022021
:104DF000FDF782FF0020FEF744FD0020FEF753FD83
:104E00004FF48060FEF746FD4FF480110020FEF75E
:104E10000FFD0120FEF718FD00BF3920FEF7C3FC8F
:104E20000028FAD00220FEF71EFD00BFFEF724FD89
:104E30000828FBD11CBD10B5FFF772FF10BD10B5DF
:104E40003648006840F00100344908600846406870
:104E500033490840314948600846006831490840F4
:104E60002E4908600846006820F480200860084643
:104E7000406820F4FE0048604FF41F008860002066
:104E8000C862FFF7D8FF4FF000602749086010BDE7
:104E900030B50021002000220023204C646804F07B
:104EA0000C0121B1042906D0082925D107E01F4CA7
:104EB0001F4D2C6024E01D4C1D4D2C6020E0174C34
:104EC000646804F47010154C646804F480320224A1
:104ED00004EB904022B9174C4443154D2C600AE076
:104EE0000E4CE46A04F00F04631C104CB4FBF3F4A2
:104EF00044430F4D2C6003E00C4C0D4D2C6000BF63
:104F000000BF064C6468C4F303140B4D295D084CC4
:104F10002468CC40064D2C6030BD000000100240DB
:104F20000000FFF8FFFFF6FE08ED00E000127A0037
:104F30009800002000093D009C00002040EA010389
:104F40009B0703D009E008C9121F08C0042AFAD23F
:104F500003E011F8013B00F8013B521EF9D2704703
:104F6000D2B201E000F8012B491EFBD270470022AB
:104F7000F6E710B513460A4604461946FFF7F0FF58
:104F8000204610BD30B505462A460B4612F8010BE7
:104F900013F8014B08B1A042F8D01CB1002802D090
:104FA0006D1CF1E7284630BD0FB400B58DB010A9D7
:104FB00009900B9000914FF0FF300A9000200C9068
:104FC00005480690054807906A4609A80F9900F021
:104FD00063F90DB05DF814FBB5520008D352000818
:104FE0002DE9FF5F1D464FF0FF3BD5E90146914695
:104FF0005F464FF00008A9697F1C01988847296A1D
:10500000824688470028F6D1BAF1FF3F0CD024F43D
:10501000C064002E19DD600614D5BAF12B0F09D03B
:10502000BAF12D0F0ED103E0584604B0BDE8F09F51
:1050300044F48064A9697F1C01988847761E8246E3
:10504000002E02DDBAF1300F03D0B9F1000F26D0E7
:1050500032E0A969761E44F400747F1C01988847E9
:105060008246002E05DDBAF1780F06D0BAF1580F4E
:1050700003D0B9F1000F10D01EE0B9F1000F02D03B
:10508000B9F1100F18D1A969761E24F400747F1CA1
:10509000019888478246102002E0082000E00A209C
:1050A000814609E008FB0908A969761E44F40074EA
:1050B0007F1C019888478246002E05DD49465046F0
:1050C00000F0D5F80028EDDAE96901988847A005D5
:1050D00002D46FF00100A8E7E00725D1600613D5E0
:1050E000600502D5C8F1000000E0404629680A1DAD
:1050F0002A600968220501D5087015E0220701D54C
:10510000088011E008600FE02868011D2960006830
:10511000210502D580F8008006E0210702D5A0F81D
:10512000008001E0C0F8008038467EE72DE9FF5F8F
:10513000D2E901A74FF00008916999461446DDF8BD
:1051400038B0464601988847054659EA0B0005D015
:1051500009E0A169761C019888470546216A28461E
:1051600088470028F5D1681C03D05FEACA7005D0D3
:1051700015E04FF0FF3004B0BDE8F09F2068011D3E
:105180002160D0F800800AE05FEACA7001D108F817
:10519000015BA169761C7F1E019888470546002F98
:1051A0001ADD681C18D0B9F1000F0DD0E81705EB17
:1051B000D060421120F01F0059F822102A1A012055
:1051C00090400142E0D107E0BBF1000FDCD1216A41
:1051D000284688470028D7D0E16901988847BBF165
:1051E000000F07D1002E05DD5FEACA7002D1002151
:1051F00088F80010A068B84203DDBBF1000F03D0AF
:1052000017B16FF00100B6E73046B4E72DE9F05F63
:105210000546002092469B46884606468146402425
:105220001BE0284641464746224600F084F8534694
:105230005A46C01A914110D311461846224600F032
:105240006BF82D1A67EB01084F462246012000211A
:1052500000F062F817EB00094E41201EA4F1010492
:10526000DFDC484631462A464346BDE8F09F3A28EF
:1052700000D2303820F02002412A01D3A2F13700B9
:10528000884201D34FF0FF3070470000026811449C
:105290001378016018467047D16004495161044990
:1052A000116200211161114600F05AB88D520008B8
:1052B00057530008426842B1016811F8013B23B11D
:1052C000521EC0E90012184670470121C160881EB5
:1052D000704742685AB1C368016843B983688B421A
:1052E00005D0491E521CC0E90012002070474FF043
:1052F000FF307047064C074D06E0E06840F00103C0
:1053000094E8070098471034AC42F6D3FAF70CFF44
:10531000085A0008285A0008202A04DB203A00FA1C
:1053200002F1002070479140C2F1200320FA03F3FC
:10533000194390407047202A04DB203A21FA02F0FA
:105340000021704721FA02F3D040C2F120029140BF
:10535000084319467047C0B24FF4F05100F096B9B7
:105360002DE9F34F8BB04FF0000801F10C000C4613
:105370004FF0010B46460DF1080A019062690121C8
:105380000198904705002DD0252D2CD0216A884703
:10539000C0B16269012101989047216A88470028BD
:1053A000F7D1411E62690198904700E0761CA1691F
:1053B0000B988847216A88470028F7D1E1690B9844
:1053C0008847DBE7A1690B9888470746A84201D1C7
:1053D000761CD3E7E1690B9888477F1C02D1B8F1AE
:1053E000000F6FD046E1002762693D4639460198BB
:1053F00090472A2804D1626901210198904701252C
:10540000DFF884926269012101989047A0F1300190
:105410000A290AD24F45E5DC07EB870100EB41077B
:10542000303FDFD445F01005ECE7E90601D46FF01A
:1054300000476C280AD04C2814D0682815D06A2858
:105440000DD074281CD07A281AD01DE06269012181
:10545000019890476C2802D045F0040514E045F00F
:1054600002050DE045F020050AE06269012101987E
:105470009047682802D045F0080505E045F400652E
:105480006269012101989047C4E9015765283DD020
:1054900019DC58287AD00CDC452837D004DC2528C4
:1054A00026D0412831D131E046282FD047282CD1B1
:1054B0002CE05B2877D0612828D063287CD0642832
:1054C00023D15AE0D0E06F2848D008DC66281DD0F0
:1054D00067281BD0692821D06E2816D127E07028B4
:1054E00045D0732868D0752847D078280DD14DE075
:1054F000A1690B988847054625283FF469AFE16903
:105500000B9888476D1C3FF46AAFB3E023466A46A8
:105510006FF001000B99AFF300809EE045F0400072
:105520006060A80723464FF0000236D43EE0E8074B
:105530007FF447AF2068011D21600068290501D56F
:1055400006701BE7290701D5068017E7A90703D5D1
:10555000F117C0E9006111E706600FE745F0400070
:105560006060A80723464FF0080216D41EE040F6FC
:105570000E0125EA0100606016E045F04000606021
:10558000A80723464FF00A0207D40FE045F0400079
:105590006060A80708D5234610226FF001000B9920
:1055A000AFF3008059E007E0234610226FF00100BE
:1055B0000B99FFF715FD50E04FF000094F464B46A1
:1055C000632802D05B2806D040E0E80601D4012021
:1055D000A06001273AE062690121019890475E28A6
:1055E00005D14FF001096269494601989047216948
:1055F00039B900210A46534643F82120491C08299D
:10560000FADBB0B3216969B9C11700EBD16253115C
:105610000AEB830122F01F02821A01200B689040DE
:1056200003430B6062690121019890475D28E8D12E
:10563000B9F1000F09D00020514651F82020D24383
:1056400041F82020401C0828F7DB02AB22460097D7
:105650006FF001000B99FFF769FD00280CDA401C80
:1056600008D1BBF1000F05D04FF0FF300DB0BDE801
:10567000F08FFFE74046F9E7E90701D108F101089B
:1056800006444FF0000B79E6CCCCCC0C7F2801D936
:10569000002208E0064A02EB5002C007127800D14F
:1056A000120902F00F0201209040084070470000EC
:1056B000C65900080FB4084B10B504A902AA0398F4
:1056C00000F01CF8044602A9002000F077F92046FB
:1056D00010BC5DF814FB0000BD59000802E008C8CA
:1056E000121F08C1002AFAD170477047002001E05C
:1056F00001C1121F002AFBD1704700002DE9FF4FA6
:105700008DB09B460F460446002606E025280BD0A8
:105710005A460F999047641C761C20780028F5D1D2
:1057200011B03046BDE8F08F0025A8460122984907
:1057300000E0054314F8013F203B02FA03F0084261
:10574000F7D120782E2817D114F8010F45F0040561
:105750002A280ED06FF02F022078A0F130010929FD
:105760000AD808EB880102EB410100EB0108641C38
:10577000F2E757F8048B641C20786C280DD004DC09
:105780004C2812D06A2811D104E074280DD07A2850
:105790000CD10AE045F4001507E0617845F4801566
:1057A000814202D1641C05F58015641C2278692AA7
:1057B00045D008DC002AB3D0582A69D0632A10D01B
:1057C000642A08D13BE0702A67D0732A13D0752A67
:1057D0005CD0782A5CD010465A460F999047761CC8
:1057E000D3E017F8040B8DF8000000208DF80100BD
:1057F000E946012003E057F8049B4FF0FF306907AA
:105800004FF0000501D40AE06D1C45450DDA8542D4
:10581000FADB19F805100029F6D106E06D1C854267
:10582000FCDB19F805100029F8D12E4404E019F822
:10583000010B5A460F9990476D1EF8D2A5E00A2039
:105840000021CDE90801C5F3025002280DD001CF97
:10585000C117031E71F100030DDA4FF0000CD0EBFD
:105860000C006CEB01012D2308E0FF1D27F007075A
:10587000F7E80201EDE72B0504D52B238DF828303E
:1058800001233BE0EB0739D02023F7E70A2000E0B3
:1058900010200021CDE9080107E01020002145F08B
:1058A0000405CDE908014FF00808C5F302500228AD
:1058B0000FD001CF00214FF0000A2B071FD5702A0F
:1058C0000DD0DDE908C38CF0100C5CEA030C0CD0A1
:1058D00015E0FF1D27F00707F7E80201EBE740227C
:1058E0008DF828204FF0010A0BE050EA010306D0A2
:1058F00030238DF828308DF8292002239A46582A23
:1059000004D024A20DF120090B9209E026A2F9E7A8
:10591000DDE90823FFF77AFC0B9B9B5C09F8013D4E
:1059200050EA0102F4D1ADEB09002030089068077D
:1059300001D44FF001080899884502DDA8EB010069
:1059400000E000208046002506E00AA85A46405D97
:105950000F9990476D1C761C5545F6DB04E030200E
:105960005A460F999047761CB8F10001A8F101083A
:10597000F5DC05E019F8010B5A460F999047761CA3
:105980000899481E08900029F4DC641CC5E6000054
:105990000928010030313233343536373839616205
:1059A00063646566000000003031323334353637C9
:1059B0003839414243444546000000000A68531C00
:1059C0000B6010707047DDDDDDDDDCBBBBDDDDDDD8
:1059D000DDDDDDDDDDDD988888888888888877775B
:1059E00077777788888885555556666666666666D1
:1059F0006666666888888333333222222222222216
:105A000022222228888D0000285A00080000002049
:105A1000AC000000DC560008D45A0008AC0000209E
:105A2000440E0000EC5600080000000000000000DA
:105A30000000000000000000000000000000000066
:105A40000000000000000000000000000000000056
:105A50000000000000000000000000000000000046
:105A60000000000000000000000000000000000036
:105A70000000000000000000000000000000000026
:105A80000000000000000000000000000000000016
:105A90000000000000000000000000000000000006
:105AA00000000000000000000000000000010203F0
:105AB00004010203040607080902040608000000A6
:105AC00000366E0100000000000000000102030427
:045AD00006070809B4
:0400000508000121CD
:00000001FF
