:020000040800F2
:1000000088110020495900084105000843050008EF
:10001000470500084B0500084F05000800000000D8
:100020000000000000000000000000005305000870
:100030005505000800000000570500085905000894
:100040005F5900085F5900085F5900085F590008B0
:100050005F5900085F5900085F5900085F590008A0
:100060005F5900085F5900085F5900085F59000890
:100070005F5900085F5900085F5900085F59000880
:100080005F5900085F5900085F5900080000000030
:100090000000000000000000000000006B0B0008E2
:1000A0005F5900085F5900085F5900085F59000850
:1000B0005F590008B30A00085F5900085F5900083B
:1000C0005F5900085F5900085F5900085F59000830
:1000D0005F590008010800085B080008BB08000819
:1000E0005F5900085F5900085F59000800000000D0
:1000F0000000000000000000000000000000000000
:1001000000000000000000000000000000000000EF
:1001100000000000000000005F5900085F5900085F
:1001200000F002F800F03FF80AA090E8000C8244CA
:100130008344AAF10107DA4501D100F034F8AFF2A7
:10014000090EBAE80F0013F0010F18BFFB1A43F0B5
:10015000010318476C5D00008C5D0000103A24BF5D
:1001600078C878C1FAD8520724BF30C830C144BF1C
:1001700004680C607047000000230024002500265E
:10018000103A28BF78C1FBD8520728BF30C148BFFA
:100190000B607047782905F04985002070471FB52E
:1001A0001FBD10B510BD05F040FE1146FFF7F7FF6B
:1001B00000F008F805F05EFE03B4FFF7F2FF03BCA1
:1001C00005F062FE8CB000200B9000241822B1A133
:1001D00005A805F057FD00200490039002900190BF
:1001E00000F045FE01F012FA00F0DBFE00F0B1FF76
:1001F00000F0F5FF01F028F900F08EFE01F031FA71
:1002000002F0D2FE01F0ECFE68BB4FF48041A7483B
:1002100003F081FF0020A649087004F024F801F0E3
:1002200013FB00224FF41641032001F04DF801F0BA
:1002300018FB4FF47A7001F0F1FE152105A801F0CA
:10024000CEF808E00A2001F0E9FE601CC4B21E2CC2
:1002500001DB00F012F9974800780028F2D001F095
:100260006FFE00F00AF901F0F8FC002092490870D6
:1002700001209249087000208E490870904908704A
:10028000904908709049087090490880904908701A
:1002900090490870904908809049088090490870FA
:1002A000904908709049087090490870904908700A
:1002B0009049087001209049087000208F490880FB
:1002C0008F4908608F49087002208F4908700F20FD
:1002D0008E49087053208E4908808E4800F090FCAB
:1002E0008D4800F08DFC8D4800F08AFC01F052FD35
:1002F00001F0AAFA01F006FE02F046FD88490880E6
:1003000001F098FC642001F089FE01F0CAFCB3E022
:1003100003F0A9FF7548007801280ED17F4800F04E
:10032000A9FC02283CD0012204A97C4800F0ADFCC5
:100330009DF8100001F0F4FC32E06D4800780128CF
:100340001CD1764800F096FC022808D0012203A9AF
:10035000724800F09AFC012103A801F010F86D48E2
:1003600000F088FC02281BD0012202A9694800F095
:100370008CFC012102A801F032F811E05F480088EE
:1003800032280DDD00205D49088066490870664806
:100390000078032804D165480188654801F007FD0D
:1003A0004848007801280DD15B4800F063FC022822
:1003B00008D0012201A9584800F067FC012101A8DA
:1003C00001F00DF84548008841F28831884212DB7F
:1003D000504800F015FC504800F012FC4F4800F067
:1003E0000FFC00203D49088001F081F84FF40051D6
:1003F0002E4803F08EFE3848008841F2883188424A
:1004000004DB00203449088002F0BEFC304800784C
:10041000C0B13E480078C0EB0010800000EB400106
:10042000C1EBC01036490968C1EBC00041498842A0
:1004300008D900202649087002203449087000209D
:100440002F49086031480078C0EB0010800000EBB5
:100450004001C1EBC0102A490968B1EBC00F04D3B9
:1004600000202749086001F011FA40210F4803F0ED
:1004700036FE08B900F001F84AE72F48006800F49A
:10048000E0602E490843001D2B490860BFF3408FF0
:1004900000BFFEE741542B554152543D31313532B6
:1004A00030302C20302C320D0A000000000C0140AE
:1004B0005400002055000020320000205E00002083
:1004C0005C0000205D000020220000202E000020A3
:1004D00033000020340000202C00002030000020D9
:1004E0005700002045000020460000205800002052
:1004F000590000205A0000205B000020640000200A
:1005000028000020250000203500002038000020B1
:1005100052000020080100200A0300200C050020E2
:100520003E00002066000020560000201A00002037
:100530000E090020C0D401000CED00E00000FA0517
:10054000704700BFFEE700BFFEE700BFFEE700BF49
:10055000FEE770477047704770B500250024FE48DD
:100560000078002811D0FD480078401CFB49087035
:10057000FB48007850B94021FA4803F0CCFD002038
:10058000F64908700120F649087079E0F3480078D0
:10059000F5490988884227D1F1480078002823DDF1
:1005A000EF48007809281FDAED480078401EEF492F
:1005B0000978014101F0010626B94021E94803F01C
:1005C000AAFD08E04021E74803F0A3FDE8480078D1
:1005D000401CE74908700020E0490870E0480078B6
:1005E000401CDF4908704BE0DC480078DE49098890
:1005F00088421DD1DA480078092819D1DC490878E9
:1006000000EBD0714910A0EB410121B94021D54840
:1006100003F081FD03E04021D24803F07AFD002081
:10062000CE490870CE480078401CCD49087027E0BC
:10063000CA480078CC490988884210D1C848007857
:100640000A280CD14021C74803F063FD0020C349AC
:100650000870C3480078401CC149087010E0BF48CA
:100660000078C149098888420AD1BD4800780B2822
:1006700006D10020B9490870B7490870B849087018
:10068000BC48007800281FD0BB480078401CBA49FD
:100690000870B549088800EBD0714910B64A127845
:1006A000914219D1B5490978B1B9AE48083000680E
:1006B00000F0200048B10020AE490870AE49087033
:1006C000AE49087000F092FF99E00020AA49087036
:1006D0000120AA49087092E0A7480078A249098839
:1006E000884220D1A548007800281CDDA348007866
:1006F000092818DAA24800784010A14908709948E2
:100700000830006800F0200020B10846007840F072
:100710008000087000209849087098480078401CB4
:10072000964908706BE0944800788F4909888842A0
:1007300013D19248007809280FD18A480830006800
:1007400000F020008F49087000208B4908708B480A
:100750000078401C8949087051E087480078824938
:10076000098888424BD1854800780A2847D17D48BE
:100770000830006800F0200078B30024002509E06C
:100780007F480078284100F0010008B1601CC4B225
:10079000681CC5B2082DF3DB214604EBD172521060
:1007A000A4EB420212B9774A12784AB1204604EB10
:1007B000D0725210A4EB4202C2B1724A1278AAB1AE
:1007C0007148007850B16E490A7870490888411C18
:1007D0006E4B19806E490A5408E010E068480178B1
:1007E0006C4800F02EFA01206B4908700020614926
:1007F0000870614908706149087000F0F7FE70BD2B
:1008000010B540F22551654805F05AF838B16348F3
:1008100004F0D6FFC4B22146614800F012FA40F25B
:1008200027715E4805F04CF8B0B15E480488601C42
:100830005C4A10805C480068015D584804F0BCFFC9
:100840005848008859490988884205DB002240F24F
:100850002771524804F04FFF10BD10B540F22551EA
:10086000534805F02DF850B1514804F0A9FFC1B22A
:1008700050480488601C4F4A10804F48015540F290
:1008800027714B4805F01CF8B0B14C480488601C37
:100890004A4A10804A480068015D454804F08CFFD0
:1008A0004648008847490988884205DB002240F213
:1008B00027713F4804F01FFF10BD10B540F22551CD
:1008C000414804F0FDFF002833D000203F49086074
:1008D0003F48007808B33C4804F072FFC1B23D487D
:1008E0000488601C3B4A10803B4801551046008834
:1008F000801E3949085C4F2808D110460088401EE8
:10090000085C4B2802D10120344908703148008826
:10091000042802D100202E490870314800780128AF
:1009200008D1294804F04CFFC4B221462D4800F0FC
:1009300088F99DE02A480078022869D12A48007881
:1009400040B92A48007830B929480078012860D198
:10095000284951E06EE05CE045000020470000209F
:1009600049000020000801405200002044000020FF
:100970004A000020460000204C0000204D000020CE
:100980004B0000204F0000205C00002050000020A1
:100990000E0A00200A0300205D00002000380140FC
:1009A0000801002010000020040000201C0000208E
:1009B00000440040160000200E0800201400002013
:1009C000080000201E0000200048004028000020F1
:1009D000540000201A0000200E09002055000020BD
:1009E000570000200C050020560000203500002094
:1009F000250000205E000020087000206349088068
:100A0000634804F0DDFEC4B22146624800F019F9E3
:100A10002EE06148007801282AD16048007801283A
:100A200026D15B4804F0CCFEC4B22146594800F000
:100A300008F91DE001205A49087000205349088038
:100A4000534804F0BDFEC1B256480488601C554AA4
:100A50001080554801555548007830B90120534958
:100A6000087000205249088002E0002050490880A8
:100A700040F22771464804F023FFC8B100204D49D9
:100A800008604D480488601C4B4A10804B48006841
:100A9000015D3F4804F090FE4748008848490988B6
:100AA000884205DB002240F22771394804F023FE1A
:100AB00010BD10B50121434804F02DFD002853D08E
:100AC0000121404804F038FD3A480068401C39498B
:100AD00008603D480088401C3B4908802B4800883E
:100AE000401C2A49088039480078012817D1384825
:100AF0000088401C3649088008460088C8282AD14A
:100B0000002008800121334803F0F6FAC0F101000B
:100B1000C4B2224601212F4803F0FFFA1BE02B4804
:100B20000078022817D12A480088401C28490880EC
:100B300008460088B0F57A7F0DD100200880012199
:100B4000244803F0D9FAC0F10100C4B222460121C1
:100B5000204803F0E2FA15480078012804D114482F
:100B60000088401C1249088010BD10B5202002F0FA
:100B7000CBFE50B1202002F0D8FE1748007820B9F3
:100B800001201649087000F022FD10BD3000002041
:100B9000004800400C050020350000202500002002
:100BA0005E0000201A0000200E09002066000020D0
:100BB0006400002028000020180000200C00002005
:100BC00020000020000400402C0000202200002013
:100BD0002E000020000801404500002046000020B3
:100BE00010B5002807DA0A07140EFE4A00F00F03BA
:100BF0001B1FD45403E00A07130EFB4A135410BD05
:100C0000002280F8002280F80122002103E0002267
:100C100042544A1C91B2B1F5007FF8DB704701469F
:100C200091F80122501C91F80022C31700EBD35316
:100C30005B12A0EB43239A4201D1012070470020B0
:100C4000FCE730B504460D462046FFF7E8FF0128D3
:100C500000D130BD94F80102255494F80112481CCB
:100C6000C11700EBD1514912A0EB412184F80112C8
:100C70000020EEE7014691F8000291F8012290422F
:100C800001D1022070470020FCE770B503460E46F4
:100C900015461846FFF7EEFF022800D170BD93F805
:100CA000000293F8011288421FDA93F8010293F8C8
:100CB0000012401AA84201DA0320EFE7002406E000
:100CC00093F800022044185C3055601C84B2AC429A
:100CD000F6DB93F800124819C11700EBD151491205
:100CE000A0EB412183F800125BE093F8000293F837
:100CF0000112884255DD93F80002C0F5007093F8A8
:100D000001120844A84201DA0320C7E793F8000261
:100D1000C0F50070A84216DD002406E093F800023A
:100D20002044185C3055601C84B2AC42F6DB93F86A
:100D300000124819C11700EBD1514912A0EB412113
:100D400083F800122DE0002406E093F8000220440E
:100D5000185C3055601C84B293F80002C0F5007036
:100D6000A042F2DC93F80002C0F500740CE093F8A6
:100D700000120819C11700EBD1514912A0EB412113
:100D8000595C3155601C84B2AC42F0DB93F8001220
:100D90004819C11700EBD1514912A0EB412183F84A
:100DA000001200207AE730B503460D461846FFF7DB
:100DB00061FF022800D130BD93F8000293F80112C0
:100DC000884214DD002406E093F800022044185CF9
:100DD0002855601C84B293F80002C0F5007093F8A7
:100DE00001120844A042EFDC1846FFF709FF93F810
:100DF000000293F80112884212DA002406E093F808
:100E000000022044185C2855601C84B293F801024B
:100E100093F80012401AA042F1DC1846FFF7F0FEEA
:100E20000020C8E710B503461846FFF723FF022845
:100E300001D1002419E093F8000293F801128842CE
:100E400007DD93F80002C0F5007093F80112441812
:100E50000BE093F8000293F80112884205DA93F848
:100E6000010293F80012401A84B2204610BD10B55A
:100E7000012003F0FCFA00BF212003F0B6FA00289D
:100E8000FAD0102002F06EFD022002F057FD002083
:100E900003F019FB002003F028FB4FF4806003F0FF
:100EA0001BFB4FF48011002003F0E4FA012003F053
:100EB000EDFA00BF392003F098FA0028FAD002209A
:100EC00003F0F3FA00BF03F0F9FA0828FBD101217F
:100ED0004FF0C05003F0CCFB012003F0E6F90121F4
:100EE000042003F0B8FB0121082003F0B4FB01212A
:100EF000084603F0B0FB0121480203F0ACFB0121DE
:100F0000880303F0A8FB0121480403F0B1FB012191
:100F1000880403F0ADFB10BD08B500214FF0006060
:100F200002F093F84FF4C06002F058F827208DF8D3
:100F3000000001208DF801008DF802008DF80300FB
:100F4000684602F050F825208DF8000001208DF849
:100F5000010002208DF8020001208DF80300684690
:100F600002F041F826208DF8000001208DF80100E4
:100F700003208DF8020001208DF80300684602F07E
:100F800032F81D208DF8000001208DF801000420AA
:100F90008DF8020001208DF80300684602F023F866
:100FA00008BD08B50121042003F055FB01210820EC
:100FB00003F051FB4FF48060ADF8000004208DF881
:100FC00003006946094802F0F7FF4FF40070ADF8DE
:100FD000000003208DF8020018208DF803006946F8
:100FE000024805E018ED00E000E400E000080140E0
:100FF00002F0E2FF1020ADF8000003208DF802009F
:1010000018208DF803006946FE4802F0D5FF8020C5
:10101000ADF8000010208DF803006946F94802F091
:10102000CBFF0420ADF800001C208DF803006946BA
:10103000F44802F0C1FF1C21F24803F06AF84FF4B3
:101040000060ADF8000004208DF803006946EE480A
:1010500002F0B2FF4FF48060ADF8000003208DF87D
:10106000020018208DF803006946E74802F0A4FF4B
:101070004FF40060ADF8000010208DF8030003204D
:101080008DF802006946DF4802F096FF4FF40061D8
:10109000DC4803F03EF80220ADF800001C208DF87B
:1010A000030003208DF802006946D64802F084FF51
:1010B0004FF4E040ADF8000010208DF8030003204D
:1010C0008DF802006946D04802F076FF4FF4E04107
:1010D000CD4803F01EF88020ADF8000010208DF8F8
:1010E00003006946C84802F067FF8021C64803F044
:1010F00012F841F20100ADF8000010208DF8030055
:1011000003208DF802006946BE4802F055FF012118
:10111000BC4803F000F84FF48051BA4802F0F9FFE0
:101120006020ADF8000004208DF803006946B64841
:1011300002F042FF0120ADF8000000208DF803000E
:101140006946B14802F038FF0121AE4802F0E1FFE4
:1011500008BD1FB54FF4E13000904FF48050ADF85A
:1011600004000020ADF806004FF48060ADF80800E0
:101170000020ADF80C000C20ADF80A006946A34829
:1011800004F021FA4FF4E13000904FF48050ADF8B4
:1011900004000020ADF806004FF48060ADF80800B0
:1011A0000020ADF80C000C20ADF80A006946984804
:1011B00004F009FA0121954804F091FA01219448BC
:1011C00004F08DFA012240F22551904804F093FA80
:1011D000012240F225518E4804F08DFA1FBD00B562
:1011E00087B002218B4804F0FDFA0221894804F0FF
:1011F000F1FA4FF40060ADF804000020ADF80600ED
:10120000ADF808004FF48070ADF80A0001A98148DC
:1012100004F04EFA4FF4FC5003904FF48050ADF8B8
:1012200010004FF44050ADF812004FF48060ADF85C
:1012300014000C20ADF816000020ADF8180003A92A
:10124000744804F0C0F901222821724804F053FACE
:10125000012240F225516F4804F04DFA01216D48FA
:1012600004F03DFA01216B4804F0D0FA01216948ED
:1012700004F0C0FA07B000BD1CB50221654804F0B7
:10128000B1FA0221634804F0A5FA0020ADF800008D
:101290006946604804F00CFA002228215D4804F0F9
:1012A0002AFA002240F225515A4804F024FA00217B
:1012B000584804F014FA0021564804F0A7FA002117
:1012C000544804F097FA1CBD7FB505460E461446F7
:1012D00000961CB90020ADF8040003E04FF48050E4
:1012E000ADF804000020ADF80600ADF80840ADF8F8
:1012F0000C000C20ADF80A00012D04D0022D15D0F1
:10130000032D39D125E00021404804F0E8F9694671
:101310003E4804F058F901213C4804F0E0F901226C
:1013200040F22551394804F0E6F926E00021394819
:1013300004F0D5F96946374804F045F901213548EC
:1013400004F0CDF9012240F22551324804F0D3F9DE
:1013500013E000212E4804F0C2F969462C4804F03D
:1013600032F901212A4804F0BAF9012240F225514C
:10137000274804F0C0F900E000BF00BF7FBD70B592
:1013800004460D460020244908802448058024484E
:101390000460012240F227711C4804F0ACF900BF40
:1013A0001D4800881D4909888842F9D170BD70B573
:1013B00004460D4600201B4908801B4805801B4839
:1013C0000460012240F22771124804F094F900BF32
:1013D00014480088144909888842F9D170BD70B555
:1013E00004460D4600201249088012480580124824
:1013F0000460012240F22771054804F07CF900BF27
:101400000B481BE000080140000C0140003801407F
:101410000048004000440040100000201C00002054
:1014200004000020140000201E00002008000020FE
:1014300018000020200000200C0000200088A74990
:1014400009888842DCD170BD00B587B0012108460B
:1014500003F00EF90121022003F00AF940F277208F
:10146000ADF814000020ADF81000ADF81600ADF88E
:10147000120004A94FF0804003F028FA6020ADF874
:1014800000000120ADF8020040F23B10ADF806006C
:101490000220ADF808006946400703F096FA0821DB
:1014A000C80603F0A8FE0121880703F06BFE0021A7
:1014B0004FF0804003F066FD0120ADF8140042F6C5
:1014C000DF60ADF810000020ADF81600ADF8120096
:1014D00004A9834803F0FAF901221146804803F079
:1014E0006CFD01217E4803F04DFD07B000BD10B535
:1014F00000214FF0804003F045FD10BD10B50121E3
:10150000880703F03FFD10BD10B5012003F02AF855
:1015100000BF612002F069FF0028FAD045F2555063
:1015200002F098FE062002F098FE40F2CF7002F022
:1015300097FE02F098FE02F09BFE10BD1FB5012140
:10154000052003F088F84020ADF80C0010208DF83D
:101550000F0003208DF80E0003A9624802F02CFD55
:101560004021604802F0D5FD2020ADF80C00482055
:101570008DF80F0003208DF80E0003A9594802F0E2
:101580001BFD2021574802F0C4FD0521002002F078
:1015900029FE2020019000208DF808000C208DF8F5
:1015A000090001208DF80A0001A802F047F9172070
:1015B0008DF8000001208DF8010000208DF8020058
:1015C00001208DF80300684601F00DFD1FBD08B530
:1015D00017208DF8000000208DF801008DF8020022
:1015E0008DF80300684601F0FEFC08BD08B5172021
:1015F0008DF8000000208DF801008DF80200012018
:101600008DF80300684601F0EEFC08BD10B57B20A4
:1016100002F0EBFE48B103F05CF8FFF775FF44F20F
:101620002131142001F099FF1AE07D2002F0DDFE47
:1016300068B103F04EF8FFF767FF142001F099FF3F
:1016400041F2342188420BD100F020F908E003F088
:1016500040F8FFF759FF4FF6FF71142001F07DFFAE
:1016600010BD10B5204800682049B0FBF1F4B4F17A
:10167000807F01D3012011E024F07F40401E4FF015
:10168000E02148610F214FF0FF30FFF7A9FA002059
:101690004FF0E021886107200861002008B100BFF9
:1016A000FEE70021481EFFF79BFA10BD01460A2203
:1016B00091FBF2F302FB13120A2391FBF3F342EACC
:1016C0000312D0B27047014601F00F020B0903EB81
:1016D000830302EB4302D0B27047000020000020D9
:1016E0000004004000080140B4000020A086010072
:1016F00070B5002500260DE002F0B5FD642000F075
:101700008DFC681CC5B2642D04DB01F03DFBFB4978
:10171000088004E0FA48FFF785FB0F28ECD100BFF2
:10172000F849F748FFF73FFBF6480078A92801D1B0
:10173000F4484478601EF349085C162801D1012062
:1017400070BDEF48FFF75CFA3046F9E770B5002549
:10175000FFF7CEFF01280CD1002405E0E948005D29
:101760002844C5B2601CC4B2E6484078801EA0423E
:10177000F4DCE4484078801EE249085CA84201D1CC
:10178000012070BD0020FCE730B500230024DE48B6
:101790000078A92802D1DC48427801E0002030BD61
:1017A000501ED94D285C16284CD12846817AA2F1CA
:1017B0000D00884244D12846C078032803D028462B
:1017C000C07804283CD1002305E0CF48C05C204409
:1017D000C4B2581CC3B2CC484078801E9842F4DC96
:1017E000901EC94D285CA04228D12846807800F080
:1017F0000400A0B12846C078042802D10120C34DBE
:10180000287031B90020C24D28700120C14D2870C8
:1018100012E00120BE4D2870BE4D28700CE029B9A1
:101820000020BB4D2870BB4D287005E00120B84D4D
:1018300028700020B74D28700120B0E70020AEE7E7
:101840000020ACE70020AAE70021B34A1180002065
:1018500004E00021AC4A1154411C88B2FF28F8DD95
:10186000704710B50120AD4908708103AC4802F003
:1018700050FC8021AA4802F04CFC322000F0CEFB44
:101880004FF48041A64802F046FC10BD10B5002080
:10189000A44908700121A44802F03DFCFFF727FE8F
:1018A0004FF400519E4802F034FC4FF480419C48B4
:1018B00002F02FFC4FF400619B4802F02AFC4FF429
:1018C0008051974802F025FC41F23421142001F0A8
:1018D00044FE02F018FD10BD70B594B00024FFF76F
:1018E00035FF01287ED191490870864800799049DA
:1018F0000870844840798F490870824880798E4901
:1019000008708048C0798D4908700846007808B989
:10191000FFF7BCFF7B48807800F0010008B1FFF7BB
:10192000B5FF7848807800F0020000287ED080481B
:10193000007802287AD17348407A8149087071484A
:10194000807A48706F48C07A88706E48007BC87093
:101950000846C07800F00F00C9780909784A9278E3
:1019600002F00F02764B9B781B09CDE90232CDE9DC
:1019700004107348407800F00F0071494978090954
:10198000CDE900106E48007800F00F036C48007835
:1019900002096CA107A804F001F902F064FCFFF74A
:1019A00053FF00224FF416410320FFF78DFCFFF791
:1019B00058FF4FF47A7000F031FB0AE02046621CB9
:1019C000D4B207AA115C674803F0F6FE0A2000F0C3
:1019D00025FB601E07A9085C0D28EFD107A8005D54
:1019E0000A2800E0E8E0E9D1002430E002F03BFC06
:1019F000642000F013FB601CC4B21E2C27DBFFF731
:101A000023FF0AE02046621CD4B207AA115C5548A5
:101A100003F0D2FE0A2000F001FB601E07A9085C5B
:101A20000D28EFD107A8005D0A2800E015E0E9D1F4
:101A3000002408E0642000F0F1FA601CC4B21E2CFF
:101A400001DB00F0D6FA484800780028F2D046487A
:101A500000780028CAD000F0CCFA3648007830B1BF
:101A6000012807D0032808D006280CD108E04FF43D
:101A7000966509E04FF4166506E04FF4165503E04D
:101A80004FF4164500E000BF00BF2B48007820B19E
:101A9000012805D0022808D105E04FF4806605E052
:101AA0004FF4C06602E0002600E000BF00BF2048FF
:101AB0000078012804D132462946FFF705FC16E0DC
:101AC0001B48007898B9B5F5966F03D0B5F5166F39
:101AD00008D103E053202549088007E02A20234944
:101AE000088003E053202149088000BF00BF05485B
:101AF000007AF8BB00201E49087042E03E0000203A
:101B00000C050020C80000200E0900203200002033
:101B10005B0000205A0000201A0000205400002022
:101B2000000C014022000020000801402500002098
:101B3000350000203600002037000020380000204B
:101B40003900002041542B4E414D453D424F4F53EB
:101B500054257825782578257825782578257825C1
:101B6000780D0A0000480040550000205200002077
:101B700056000020FFE7FA48007810B90320F94921
:101B80000870F748007840B9FFF7D8FCF5480078AE
:101B900068B90120F449087009E0F148007801288B
:101BA00005D1F2490870C102F14802F0B4FA0220EE
:101BB000F0490870F049087014B070BD3EB5EFA14F
:101BC000D1E900028968CDE901210090EE48006862
:101BD000000E8DF80400EC480068000C8DF805003C
:101BE000E9480088000A8DF80600E74800788DF87B
:101BF0000700E64800788DF80800E4480088000AED
:101C00008DF8090000240BE00A2C07DA9DF80A0081
:101C10001DF804100844C0B28DF80A00601CC4B25C
:101C20000B2CF1DB0120D34908700C216846FFF72B
:101C3000D6FB3EBD10B54FF48051CD4802F069FA95
:101C40008021D34802F067FA4FF48041D04802F077
:101C500062FA0120C849087010BD10B54FF4005158
:101C6000CB4802F056FA4FF48041C94802F051FACD
:101C70004FF40061BE4802F04CFA4FF48051C44862
:101C800002F047FA10BD10B50020C249087080214B
:101C9000BF4802F040FA4FF48041BD4802F039FAE3
:101CA00010BD70B50024002504E002F0DCFA6420C9
:101CB00000F0B4F94021B64802F011FA30B92846D4
:101CC000691C8DB240F6B8318842EEDB40F6B83080
:101CD000854202DB0025FFF7D9FD4021AC4802F028
:101CE000FEF9B0B100BF02F0BEFA1D2C02DD0024E7
:101CF000FFF7CCFD601C84B2FFF760FFFFF7ECFD3F
:101D00004021A34802F0EBF918B1A348007800285D
:101D1000E9D0A1480078012801D000F06AF970BD2F
:101D200010B504469D48007830B1FFF7E7FB4FF44B
:101D30000051974802F0EFF90020984908700120FF
:101D4000974908700020974908709748047000BFB1
:101D5000934800780128FBD0012000F05FF910BD06
:101D600070B505460E46002404E0285DFFF7D8FF55
:101D7000601C84B2B442F8DB70BD00218B4A118034
:101D8000002004E000218A4A1154411C88B2FF2837
:101D9000F8DD70470021874A1180002004E000210F
:101DA000854A1154411C88B2FF28F8DD70472DE99F
:101DB000FF4106460F4681A103C9CDE9020100207B
:101DC000009001900024FFF7DFFC012821D100BF23
:101DD00005E0201D305C0DF80400601CC4B2062C28
:101DE000F7DB7848007800285ED04FF480516848CF
:101DF00002F091F9FFF782FB4FF40051644802F0C2
:101E00008AF97148007828B100206F49087000F005
:101E100008FF73E001206D490870684600F00BFE72
:101E200005460020694908704FF48051584802F077
:101E300070F90DB1012D22D165480078A0B98DF857
:101E40000C50002409E09DF80D0002A9095D08442A
:101E5000C0B28DF80D00601CC4B2052CF3DB072165
:101E600002A8FFF7BCFA49E00B2404E0305DFFF75D
:101E700057FF601CC4B2B81EA042F7DC3EE08DF8EC
:101E80000C50002409E09DF80D0002A9095D0844EA
:101E9000C0B28DF80D00601CC4B2052CF3DB072125
:101EA00002A8FFF79CFA29E0FFF728FB4FF4005146
:101EB000374802F030F946480078A8B903208DF879
:101EC0000C00002409E09DF80D0002A9095D0844FA
:101ED000C0B28DF80D00601CC4B2052CF3DB0721E5
:101EE00002A8FFF77CFA09E00B2404E0305DFFF75D
:101EF00017FF601CC4B2B81EA042F7DCFFF7A4FCB9
:101F0000BDE8FF8110B500F0A5F800F034FE1E49D1
:101F100008604FF480511E4802F0FBF810BD70B508
:101F200004462C4D2146284601F03CFE2A49087003
:101F300008460078042801D1012070BD0020FCE78C
:101F400010B501F01AFD352001F0B2FF214801F073
:101F500059FD0A2000F062F82048FFF7E0FF10BDAD
:101F600035000020560000205800002059000020B5
:101F7000000801405700002022000020A90C800228
:101F80000000000000000016400000203E0000207D
:101F9000000C014054000020250000205E000020BD
:101FA000450000204A0000204400002012000020CC
:101FB0000E070020160000200E080020A90780034D
:101FC000FF0016005A000020320000205C000020B4
:101FD0005B000020FCFF00086700002011100111C9
:101FE0000A4801680A48814201D101207047002057
:101FF000FCE70848006800F4E06007490843001D5A
:1020000004490860BFF3408F00BFFEE7FCFF0008F3
:10201000111001110CED00E00000FA05002109E0AB
:10202000002201E0531C9AB240F6B8339A42F9DB21
:102030004B1C99B28142F3DB7047002107E000227C
:1020400001E0531C9AB2032AFBDB4B1C99B281427C
:10205000F5DB704710B50A20FFF7E0FF4FF4805121
:10206000FE4802F058F86420FFF7D8FF8021FC48B2
:1020700002F051F84FF48070FFF7D0FF8021F8484C
:1020800002F047F86420FFF7C9FF10BD70B50446A1
:102090000D460020F3490880F3480580F3480460AA
:1020A000012240F22771F24803F025FB00BFED4802
:1020B0000088ED4909888842F9D170BD70B50546A0
:1020C000002404E00120FFF7A9FF601C84B2E94866
:1020D0000088A84202DCB4F5C87FF3DBB4F5C87F02
:1020E00001DB002070BD0120FCE72DE9F74FC2B0F5
:1020F0000646934604250024002001908246FFF7FF
:1021000049FE05213046FFF7C1FF0525BBF1040F4D
:1021100003D14FF0010800272CE0BBF1050F06D1D9
:102120004FF00208377917BB4FF4807722E0BBF1FC
:10213000060F03D137794FF003081BE0BBF1070FFF
:102140000CD137793FB94FF00208B079717900EBC3
:10215000012087B20EE04FF003080BE037793FB95A
:102160004FF00308B079717900EB012087B201E0EC
:102170004FF0030800BF05EB0A0188B2FFF79EFF8E
:10218000012809D105EB0A00BB4911F800900AF1BA
:1021900001001FFA80FA00E056E0B9F1600F00D1AB
:1021A00050E009F0F000602803D009F0F00090281A
:1021B00002D10120019047E07078484521D1B8F163
:1021C000020F12D100BF691C214488B2FFF776FFCD
:1021D000681C2044A849085C02A90855601C84B208
:1021E000781E80B20700EED12BE000BF70190121EC
:1021F000FFF74CFF681C85B2781E80B20700F5D14E
:102200001FE0707889F0FF01884219D1B8F1020F00
:102210000DD1691C214488B2FFF750FF681C20448F
:102220009549085C02A90855601C84B205E0701944
:102230000121FFF72BFF681C85B2781E87B200E0F2
:1022400002E000BF002F96D100BF019868B9691C59
:10225000214488B2FFF732FF681C20448649085C9D
:1022600002A90855601C84B204E002A800F804909A
:10227000601C84B2691C214488B2FFF71FFF681CF0
:1022800020447D49085C02A90855601C84B24FF0C7
:10229000000A09E002A810F80A10439800F80A1092
:1022A0000AF101001FFA80FAA245F3DBFFF772FD85
:1022B000204645B0BDE8F08F10B586B06FA103C9C8
:1022C000CDE90401052201A904A8FFF70EFF9DF83E
:1022D0000C0090280FD19DF80D0060B9002405E096
:1022E00001A8005D67490855601CC4B2082CF7DBE3
:1022F000012006B010BD0020FBE730B58FB00546C9
:10230000182261A109A803F0BDFC65A30FCB05ACA1
:102310000FC467A103C9CDE90301002408E0295DCA
:10232000E01D09AA1154295D08301154601CC4B283
:10233000062CF4DB002406E05248015D601D05AA6E
:102340001154601CC4B2082CF6DB1522694609A89A
:10235000FFF7CBFE9DF8000090282CD19DF80100DE
:1023600048BB0D22694605A8FFF7BFFE9DF8000097
:1023700061281ED19DF8010008281AD1052269465E
:1023800003A8FFF7B2FE9DF8080090280FD19DF832
:10239000090060B9002405E01DF80400464908550D
:1023A000601CC4B2082CF7DB01200FB030BD002048
:1023B000FBE70020F9E70020F7E730B58DB00546D0
:1023C0003EA2D2E901311068D268CDE90A310C92FF
:1023D000099033A3D3E90020D3E9021306AC0BC460
:1023E000059233A103C9CDE90301002405E0295D6D
:1023F000E01D09AA1154601CC4B2062CF7DB0024AE
:1024000006E02048015D601D05AA1154601CC4B29D
:10241000082CF6DB1522694609A8FFF766FE9DF831
:102420000000902867D19DF80100A8B90D226946E7
:1024300005A8FFF75AFE9DF80000612859D19DF8C4
:102440000100082855D10522694603A8FFF74DFE73
:102450009DF80800902839E04DE00000000C014094
:1024600000080140140000201E0000200800002089
:1024700000440040160000200E08002000840000E8
:10248000080000007000002080FA000110A7010081
:102490000000000012000000000000001200000018
:1024A00080FA0000080000000000000000000000AA
:1024B00000C00000080000007800002080FA00033F
:1024C0000800000000000000000000000FD19DF88F
:1024D000090060B9002405E01DF80400FB49085517
:1024E000601CC4B2082CF7DB01200DB030BD002009
:1024F000FBE70020F9E70020F7E7002108E0F348B8
:10250000405CF34A525C904200D003E0481CC1B2E8
:102510000829F4DB00BF082901DA002070470120F8
:10252000FCE730B58DB00546EAA2D2E9013110686A
:10253000D268CDE90A310C920990AFF29C03D3E93D
:102540000020D3E9021306AC0BC40592AFF2A00140
:1025500003C9CDE90301002405E0295DE01D09AAB6
:102560001154601CC4B2062CF7DB002406E0DD48E1
:10257000015D601D05AA1154601CC4B2082CF6DB75
:102580001522694609A8FFF7B0FD9DF800009028C4
:102590002CD19DF8010048BB0D22694605A8FFF724
:1025A000A4FD9DF8000061281ED19DF801000828B7
:1025B0001AD10522694603A8FFF797FD9DF8080088
:1025C00090280FD19DF8090060B9002405E01DF89E
:1025D0000400C5490855601CC4B2082CF7DB012073
:1025E0000DB030BD0020FBE70020F9E70020F7E741
:1025F00010B58EB0BDA2D2E901311068D268CDE924
:102600000B310D920A90AFF26813D3E90020D3E9A1
:10261000021307AC0BC40692AFF26C1103C9CDE9EB
:102620000401002406E0B548015D601D0AAA1154AA
:10263000601CC4B2082CF6DB002406E0A948015D4A
:10264000601D06AA1154601CC4B2082CF6DB1522CA
:1026500001A90AA8FFF749FD9DF8040090282CD194
:102660009DF8050048BB0D2201A906A8FFF73DFD16
:102670009DF8040061281ED19DF8050008281AD194
:10268000052201A904A8FFF730FD9DF80C00902851
:102690000FD19DF80D0060B9002405E001A8005D90
:1026A00091490855601CC4B2082CF7DB01200EB01C
:1026B00010BD0020FBE70020F9E70020F7E700212C
:1026C0008F4A1180002004E000218E4A1154411CE1
:1026D00088B2FF28F8DD704770B505460E46FFF753
:1026E000EEFF002404E0285DFFF71AFB601C84B2B3
:1026F000B442F8DB70BD70B50546002406E001F079
:10270000B2FD0120FFF78AFC601C84B27C4800887F
:10271000A84203DA40F6B8308442F0DB40F6B83025
:10272000844201DB002070BD0120FCE730B590B091
:1027300004460B463F2B02DD002010B030BD0021C7
:1027400004E0605C0DF80100481CC1B29942F8DB5E
:10275000002106E0581E401A1DF800005054481C85
:10276000C1B29942F6DB0120E7E72DE9FC470646B6
:10277000884691464FF0000A002540E0705D6828C9
:102780003BD1E81D305C682837D105F10900375C82
:10279000E8190C30404530DC05F109003844801C54
:1027A000305C162829D1681CC4B20BE0315D601B77
:1027B000401E19F80000814202D00120BDE8FC87CC
:1027C000601CC4B2E81D8442F0DB2C4605E0305D9D
:1027D000504400F0FF0A601CC4B205F109003844FF
:1027E000401CA042F3DC05F109003844401C305C79
:1027F000504501D00220E1E705E0681CC5B205F1B3
:102800000C004045BADD00BF002409E005F11400CA
:102810002044305C3338C0B20DF80400601CC4B2F0
:10282000082CF3DB354A08216846FFF77FFF0024B8
:1028300009E005F11C002044305C3338C0B20DF8CB
:102840000400601CC4B2082CF3DB214A082168464E
:10285000FFF76CFF002409E005F124002044305C00
:102860003338C0B20DF80400601CC4B2082CF3DB8E
:102870001C4A08216846FFF759FF03209EE770B500
:102880008AB00546202220A1684603F0FBF9002407
:1028900005E0295D601D0DF80010601CC4B2062C17
:1028A000F7DB08AA08212048FFF740FF002409E0D1
:1028B00008A8005D3330C1B204F116000DF8001015
:1028C000601CC4B2082CF3DB042439E0780000203B
:1028D0009000002080FA00020800000000000000C4
:1028E00012000000880000208000002080FA000410
:1028F0000800000000000000120000009800002006
:10290000500000200E0A0020FEFEFEFE683200008D
:102910000000006803103236B33A3935353B6FC2D8
:102920003333EE6D33330016700000209DF81E0027
:102930001DF804100844C0B28DF81E00601CC4B21B
:102940001E2CF3DB20216846FFF7C6FE3220FFF77E
:10295000D2FE0646EE480088C1B22A46ED48FFF78F
:1029600004FF30460AB070BDF0B503460D4616466A
:10297000002700213EE0585C682839D1C81D185C4A
:10298000682835D101F109001A5C88180C30A8427A
:102990002EDC01F109001044801C185C162827D198
:1029A000481CC4B20AE013F804C0601A401E305C30
:1029B000844501D00120F0BD601CC4B2C81D844212
:1029C000F1DB0C4604E0185D3844C7B2601CC4B2A9
:1029D00001F109001044401CA042F4DC01F109009F
:1029E0001044401C185CB84201D00220E3E705E027
:1029F000481CC1B201F10C00A842BCDD00BF042A92
:102A000017DB01F109001044185C3A2811D101F1DB
:102A100008001044185C33280BD1C81D1044185C02
:102A2000362806D1881D1044185C322801D10320B5
:102A3000C1E70420BFE770B58CB005462022B6A1DF
:102A400004A803F01FF9002405E0295D601D04AA15
:102A50001154601CC4B2062CF7DB6A4606212846D6
:102A6000FFF764FEFFF728FC2846FFF708FF06463D
:102A70001EB9032630460CB070BD2846FFF73DFC5A
:102A8000FFF73BFD012837D12846FFF74AFD02AA90
:102A90000821A948FFF74AFE002409E002A8005DCA
:102AA0003330C1B204F1160004AA1154601CC4B240
:102AB000082CF3DB042409E09DF82E0004A9095D2D
:102AC0000844C0B28DF82E00601CC4B21E2CF3DB8B
:102AD000202104A8FFF700FE1420FFF70CFE8C480D
:102AE0000088C1B22A468B48FFF73EFF032801D178
:102AF00000263EE002263CE02846FFF75EFCFFF79A
:102B0000FCFC012834D1FFF773FD02AA08218A4892
:102B1000FFF70CFE002409E002A8005D3330C1B2CB
:102B200004F1160004AA1154601CC4B2082CF3DB93
:102B3000042409E09DF82E0004A9095D0844C0B2F0
:102B40008DF82E00601CC4B21E2CF3DB202104A8DB
:102B5000FFF7C2FD1420FFF7CEFD6D480088C1B21B
:102B60002A466C48FFF700FF032802D1012600E047
:102B7000022630467FE77FB570A103C9CDE9020187
:102B800000250522694602A8FFF7AFFA9DF8040068
:102B900090280FD19DF8050060B9002408E01DF8C9
:102BA0000400E100C1F1180188400543601CC4B273
:102BB000042CF4DB284604B070BD10B586B061A1CA
:102BC00003C9CDE90401052201A904A8FFF78DFA84
:102BD0009DF80C0090280CD19DF80D0048B90024F8
:102BE00005E001A8005D59490855601CC4B2082CD5
:102BF000F7DB06B010BD3EB555A103C9CDE9010113
:102C000000240522694601A8FFF76FFA9DF801002C
:102C1000902804D19DF8020008B99DF80040204694
:102C20003EBD10B58AB000240020089009904AA14A
:102C300003C9CDE90601182249A1684603F022F82C
:102C40004FF480514C4801F066FAFEF757FC4FF400
:102C50000051494801F05FFA00BF06E0201D4749D6
:102C6000085C08A90855601CC4B2062CF6DBFFF707
:102C700023FB08A8FFF741FB01282DD1002408E021
:102C8000C4F107003E49095C601D0DF80010601C8E
:102C9000C4B2082CF4DB002409E0C4F10700394970
:102CA000095C04F10D000DF80010601CC4B2082C82
:102CB000F3DB002409E09DF815001DF8041008441A
:102CC000C0B28DF81500601CC4B2152CF3DB1721BF
:102CD0006846FEF784FB14E002208DF81C000024F7
:102CE00009E09DF81D0006A9095D0844C0B28DF8F1
:102CF0001D00601CC4B2052CF3DB072106A8FEF7FB
:102D00006EFB4FF480511C4801F003FA0AB010BD6D
:102D1000500000200E0A0020FEFEFEFE683100007A
:102D20000000006803103236333A3935353B4444ED
:102D300044444444444400168000002000B09A00FB
:102D40000400000000B099010800000068000020A5
:102D500000B0920001000000A9078004FF001600E7
:102D6000A91784041100000000000000000000000A
:102D70000000000000001600000C01400E090020B9
:102D800070000020780000202DE9F04F87B0182156
:102D900001A802F0A9FF0024A0464FF6FF79A24641
:102DA000002500BF1BE0834830F8140001A921F87A
:102DB000140001A830F81400404502DD01A830F8E5
:102DC000148001A830F81400484502DA01A830F850
:102DD000149001A830F814008244601CC4B20C2C7A
:102DE000E1DBAAEB0800A0EB09050A20B5FBF0F532
:102DF000B5F5136F18D9632663273846FEF756FCDE
:102E000083463046FEF752FC4BEA00256A480078BC
:102E1000002848D069480078694908700020664950
:102E20000870684908603EE0B5F5006F14D20025CF
:102E300061480078B8BB6248007860490870032098
:102E40005F4908700121604801F063F901205A4987
:102E500008705E49087026E0A5F5006042F2107126
:102E600048434FF49871B0FBF1F56420B5FBF0F1E5
:102E700000FB1156B5FBF0F0C7B200BF3846FEF7B5
:102E800015FC83463046FEF711FC4BEA00254A4804
:102E9000007840B149480078494908700020464907
:102EA000087048490860A8B207B0BDE8F08F08B5BF
:102EB0000121084601F0C2FB01214FF4027001F02C
:102EC000CAFB0120ADF8000000208DF80300694620
:102ED0003F4801F071F808BD00B591B0002001F045
:102EE0001FFB3C4800F072FB3B48069031480790BE
:102EF000002008900C20099000200A9080200B9060
:102F000040000C9080000D9020200E9000020F9049
:102F10000020109006A92F4800F0FAFB01212D484F
:102F200000F021FC002001908DF8080001208DF8B0
:102F300009004FF4602003900020049001208DF8D8
:102F4000140001A924484C3800F0DDF805230122C3
:102F5000082121484C3800F06EF901211E484C38F8
:102F600000F008F901211C484C3800F0F8F81A4824
:102F70004C3800F016F900BF17484C3800F016F92D
:102F80000028F9D114484C3800F01AF900BF124853
:102F90004C3800F01AF90028F9D101210E484C38BC
:102FA00000F01DF911B000BD10B5FFF780FFFFF76D
:102FB00093FF10BD0E0B00203400002023000020E2
:102FC00022000020280000200008014033000020DB
:102FD000000C0140080002404C24014031490143EB
:102FE000314A1160704770B5002100230F22C47868
:102FF00004B32D4C246804F4E064C4F5E064210AB1
:10300000C1F10403CA40447804FA03F184781440FF
:1030100021430901254C0678A155047804F01F05C9
:103020000124AC4005786D11AD0005F1E025C5F82F
:10303000004109E0047804F01F050124AC401C4D58
:103040000678761145F8264070BD1A4A0A400243B8
:10305000154B1B1F1A60704739B1134A121D1268B5
:103060000243114B1B1D1A6006E00F4A121D126825
:1030700082430D4B1B1D1A607047042808D14FF086
:10308000E021096941F004014FF0E022116107E0FD
:103090004FF0E021096921F004014FF0E0221161B5
:1030A000704700000000FA050CED00E000E400E0CD
:1030B00080E100E080FFFF1F10B50446FA4884421B
:1030C00008D10121401501F0E0FA0021601501F05E
:1030D000DCFA17E0F548844208D10121001501F01F
:1030E000D4FA0021201501F0D0FA0BE0F048844218
:1030F00008D10121C80301F0C8FA00214FF40040B3
:1031000001F0C3FA10BD30B502460020002350681C
:10311000E84C20400D790C6844EA052420435060B7
:103120009068E54C2040D1E902542C434D7944EAA3
:10313000450420439060D06A20F470000C7C641E2B
:10314000E4B2234340EA0350D06230BD0021016065
:10315000017141718160C16001210174704721B129
:10316000826842F00102826003E0826822F001027C
:103170008260704721B1826842F48072826003E00D
:10318000826822F480728260704710B50023CBB24F
:103190001AB144681C43446002E044689C434460A4
:1031A00010BD816841F00801816070470146002030
:1031B0008A6802F008020AB1012000E0002070478E
:1031C000816841F0040181607047014600208A68EF
:1031D00002F004020AB1012000E00020704721B192
:1031E000826842F4A002826003E0826822F4A002B6
:1031F00082607047014600208A6802F480020AB1AA
:10320000012000E00020704710B50A46002100238D
:10321000416821F46041531E41EA4331416010BDD1
:1032200021B1426842F40062426003E0426822F445
:10323000006242607047F0B504460D460020002150
:10324000092D11DDE068A5F10A0606EB4607072601
:1032500006FA07F18843A5F10A0606EB460603FACB
:1032600006F10843E0600CE0206905EB45070726FE
:1032700006FA07F1884305EB450603FA06F1084311
:103280002061072A0FDA606B561E06EB86071F26A1
:1032900006FA07F18843561E06EB860605FA06F184
:1032A0000843606322E00D2A0FDA206BD61F06EB7D
:1032B00086071F2606FA07F18843D61F06EB860607
:1032C00005FA06F10843206310E0E06AA2F10D065A
:1032D00006EB86071F2606FA07F18843A2F10D06C2
:1032E00006EB860605FA06F10843E062F0BD21B15F
:1032F000826842F48012826003E0826822F48012C5
:10330000826070470146C86C80B2704766484C3096
:103310000068704721B1426842F48062426003E075
:10332000426822F480624260704721B1426842F4F0
:103330008052426003E0426822F48052426070474B
:103340000A460021816821F4E04111438160704701
:1033500021B1826842F40042826003E0826822F474
:1033600000428260704721B1826842F4021282609A
:1033700003E0826822F40212826070470146002056
:103380008A6802F400120AB1012000E000207047B0
:10339000F0B504461546002000220026092911DD5B
:1033A000E068A1F10A0707EB470C072707FA0CF2C0
:1033B0009043A1F10A0707EB470703FA07F210430E
:1033C000E0600CE0206901EB410C072707FA0CF2E2
:1033D000904301EB410703FA07F210432061A06B11
:1033E000C0F30156EF1C06F1010CA7EB0C0707EB2D
:1033F000870C1F2707FA0CF29043EF1C06F1010C13
:10340000A7EB0C0707EB870701FA07F21043A0634D
:10341000F0BD10B50A4600210023816B21F4401154
:10342000531E41EA0351816310BD08B50023009388
:103430000090009B0B440093009B1A6008BD08B5E8
:10344000024600200090009201F12800009B1844E1
:1034500000900098006880B208BD0A4600214168CB
:10346000164B1940114341607047416282627047B8
:103470000A460021416821F01F0111434160704755
:1034800040B109490831096841F40001064A08328F
:10349000116007E004490831096821F40001024A7B
:1034A00008321160704700000024014000280140EC
:1034B000003C0140FFFEF0FFFDF7F1FFFFFD3FFF85
:1034C0000246002013680B400BB1012000E00020F1
:1034D0007047CA430260704770B50246002000235F
:1034E00000240B125568CEB205EA060415681D408B
:1034F00015B10CB1012000E0002070BD00220A12BD
:10350000D34303607047000010B5012001F0D7F8E5
:10351000002001F0D4F810BD2A49086070472949FD
:10352000091F0860704727498431086070470146C9
:103530000020254A10884FF67F4210400843224A57
:1035400010807047014600201F4A10884FF6807295
:10355000104008431C4A1080704708B500220092B2
:10356000194A2C3A0092009A02440092009A116083
:1035700008BD08B501460020009013482C38009083
:103580000098084400900098008808BD0D489C30C1
:103590000068C0B270470C480830008840F0010055
:1035A00009490831088070470648A0300068C0B259
:1035B000704705480830008840F002000249083191
:1035C0000880704704860D422C6C004001684FF65D
:1035D000FE72114001600021016041608160C160A4
:1035E0008D49884208D18C490839496841F00F015A
:1035F000894A083A51608AE087491431884208D1E3
:1036000085490839496841F0F001834A083A516018
:103610007DE081492831884208D17F4908394968CD
:1036200041F470617C4A083A516070E07A493C315B
:10363000884208D178490839496841F47041764A8E
:10364000083A516063E074495031884208D17249A8
:103650000839496841F470216F4A083A516056E0D0
:103660006D496431884208D16B490839496841F491
:103670007001694A083A516049E0674978318842E7
:1036800008D165490839496841F07061624A083AD1
:1036900051603CE06149884206D1011F096841F050
:1036A0000F01021F116032E05C491431884208D1D9
:1036B0005A49091F096841F0F001584A121F116068
:1036C00025E056492831884208D15449091F096824
:1036D00041F47061514A121F116018E04F493C31AA
:1036E000884208D14D49091F096841F470414B4A8D
:1036F000121F11600BE049495031884207D14749F8
:10370000091F096841F47021444A121F1160704773
:1037100010B50022026847F6F0739A430C6A8B6872
:1037200023430C6923434C6923438C692343CC69AD
:1037300023434C6A23438C6A23431A430260CB68B9
:1037400043600B6883604B68C36010BD002101605B
:1037500041608160C160016141618161C16101625B
:1037600041628162704721B1026842F00102026049
:1037700004E002684FF6FE731A40026070471AB107
:1037800003680B43036002E003688B4303607047E8
:10379000416070470146486880B27047014600208A
:1037A000002201F080531BB11C4B083B1A6802E059
:1037B000194B083B1A6802EA01030BB1012000E033
:1037C0000020704700F0805119B11449091F0860AA
:1037D00002E0114908394860704701460020002284
:1037E00001F080531BB10D4B083B1A6802E00A4BF5
:1037F000083B1A6802EA01030BB1012000E0002037
:10380000704700F0805119B10449091F086002E0B7
:103810000149083948607047080002400804024026
:10382000002044490860091D0860091D0860091D41
:10383000086041483F4914310860704700213D4904
:103840008279002A3AD00A46126803689A430B46E6
:103850001A600A1D126803689A430B1D1A600279E8
:1038600011440A6803681A430A60324A083212682F
:1038700003689A432F4B08331A601A1D12680368B5
:103880009A432C4B0C331A604279102A0ED11A1F1E
:10389000126803681A43274B08331A601A1D12680E
:1038A00003681A43234B0C331A600DE02149427917
:1038B00011440A6803681A430A6005E0027911445A
:1038C0000A6803689A430A60704700210160017129
:1038D0000C2141710021817170471649103109682E
:1038E0000143144A10321160704701460020114A0A
:1038F000143212680A400AB1012000E0002070472B
:103900000C49143108607047014600200022094B21
:103910001B6803EA0102074B14331B680B4013B109
:103920000AB1012000E0002070470249143108600C
:103930007047000000040140FFFF0F000146002017
:10394000FE4A106800F03800084310607047FB49D9
:10395000096821F00801F94A11601146096801431C
:1039600011607047F549096821F01001F34A1160B0
:1039700011460968014311607047F148EF494860FA
:10398000F04848607047EE48EC494860ED484860B0
:103990007047EA48006940F08000E84908617047D4
:1039A000E648006940F08000E4490861704704205F
:1039B000E249C96801F0010109B101200EE0DF49C7
:1039C000C96801F0040109B1022007E0DB49C968B8
:1039D00001F0100109B1032000E00420704700B598
:1039E00002460423FFF7E3FF034603E0FFF7DFFF90
:1039F0000346521E012B01D1002AF7D102B905233B
:103A0000184600BD30B5044604254FF43020FFF7BA
:103A1000E6FF0546042D17D1C848006940F00200B2
:103A2000C649086108464461006940F040000861E9
:103A30004FF43020FFF7D3FF0546C048006941F638
:103A4000FD710840BD490861284630BD10B5042409
:103A50004FF43020FFF7C3FF0446042C16D1B748BB
:103A6000006940F00400B54908610846006940F06B
:103A7000400008614FF43020FFF7B1FF0446AF4823
:103A8000006941F6FB710840AC490861204610BD51
:103A900000B502460423FFF78AFF034603E0FFF761
:103AA00086FF0346521E012B01D1002AF7D102B92D
:103AB0000523184600BD10B504244FF43020FFF74D
:103AC000E7FF0446042C16D19C48006940F004002E
:103AD0009A4908610846006940F0400008614FF4C7
:103AE0003020FFF7D5FF04469448006941F6FB718A
:103AF000084092490861204610BD00208F49C969DD
:103B000001F0020109B1012000E00020704730B54A
:103B1000A5250424FFF7F1FF00B100254FF4302064
:103B2000FFF75DFF0446042C3AD18548834988603D
:103B3000844888600846006940F020000861084613
:103B4000006940F0400008614FF43020FFF747FF64
:103B50000446042C1BD17948006941F6DF71084006
:103B6000764908610846006940F01000086176480F
:103B70000580E002FFF733FF0446052C10D06F48A4
:103B8000006941F6EF7108406C49086108E0052CB6
:103B900006D06A48006941F6EF710840674908613C
:103BA000204630BD78B506460C460425002000901E
:103BB000E802FFF714FF0546042D24D15F48006991
:103BC00040F001005D4908613480E802FFF707FF1B
:103BD0000546042D10D1B01C0090200C00990880DF
:103BE000E802FFF7FCFE05465448006941F6FE7105
:103BF00008405249086106E05048006941F6FE71EC
:103C000008404E490861284678BD70B504460D4607
:103C10000426F002FFF7E3FE0646042E11D14748C2
:103C2000006940F00100454908612580F002FFF776
:103C3000D6FE06464148006941F6FE7108403F49FC
:103C40000861304670BD70B505460E460424E0029A
:103C5000FFF7C5FE0446042C17D139483749886060
:103C6000384888600846006940F0100008612E80DE
:103C7000E002FFF7B4FE0446052C06D02F48006989
:103C800041F6EF7108402D490861204670BD2DE9CD
:103C9000F04304464FF6FF763746B046B14604255A
:103CA000E443E6B2C4F30727C4F307484FEA1469B4
:103CB000E802FFF794FE0546042D49D120481F492C
:103CC0008860204888600846006940F0100008615C
:103CD000FF2E06D01C4808300680E802FFF77FFE62
:103CE0000546042D08D1FF2F06D017480A3007805B
:103CF000E802FFF774FE0546042D0AD1B8F1FF0F64
:103D000007D011480C30A0F80080E802FFF767FEEA
:103D10000546042D0AD1B9F1FF0F07D00A480E302D
:103D2000A0F80090E802FFF75AFE0546052D0FD0D7
:103D30000248006941F6EF71084007E000200240A8
:103D400023016745AB89EFCD00F8FF1F6649086185
:103D50002846BDE8F08330B5054604244FF43020F2
:103D6000FFF73DFE0446042C41D160485E4988605F
:103D70005F4888600846006940F0200008610846F6
:103D8000006940F0400008614FF43020FFF727FE43
:103D90000446042C22D15448006941F6DF710840E2
:103DA000514908610846006940F0100008611DB1E2
:103DB00000205049088002E0A5204E4908804FF4B9
:103DC0003020FFF70CFE0446052C10D04648006951
:103DD00041F6EF7108404449086108E0052C06D01F
:103DE0004148006941F6DF7108403F4908612046BB
:103DF00030BDF0B505460E46174604243B483A4907
:103E000088603B488860E002FFF7E9FD0446042C27
:103E100019D13548006940F010003349086147F076
:103E2000F800304328433349891C0880E002FFF73B
:103E3000D6FD0446052C06D02B48006941F6EF71EB
:103E40000840294908612046F0BD2748C06980081C
:103E500070472548006A704700202349096801F02F
:103E6000200109B1012000E00020704729B11E4A5D
:103E7000126902431C4B1A6104E01B4A1269824317
:103E8000194B1A61704701460020012908D1164AD2
:103E9000D26902F001020AB1012008E0002006E028
:103EA000114AD2680A400AB1012000E000207047A0
:103EB0000D49C860704704200B49C96801F0010131
:103EC00009B101200EE00849C96801F0040109B1F7
:103ED000022007E00449C96801F0100109B103207C
:103EE00000E00420704700000020024023016745E5
:103EF000AB89EFCD00F8FF1F10B50446CC488442D3
:103F000008D10121042000F0C0FB0021042000F0B2
:103F1000BCFB46E0C748844208D10121082000F0DC
:103F2000B4FB0021082000F0B0FB3AE0C248844214
:103F300008D10121102000F0A8FB0021102000F082
:103F4000A4FB2EE0BD48844208D10121202000F0CE
:103F50009CFB0021202000F098FB22E0B84884421E
:103F600008D10121402000F090FB0021402000F00A
:103F70008CFB16E0B348844208D10121802000F078
:103F800084FB0021802000F080FB0AE0AE488442E0
:103F900007D10121801500F078FB0021A01500F069
:103FA00074FB10BD10B50121084600F06EFB002126
:103FB000012000F06AFB10BD2DE9F041024600250A
:103FC0000026002000230024002791F803C00CF0F5
:103FD0000F0591F803C00CF0100CBCF1000F03D0DA
:103FE00091F802C04CEA050591F800C0BCF1000F41
:103FF00031D0146800202BE04FF0010C0CFA00F3D4
:10400000B1F800C00CEA03069E4220D183004FF0B5
:104010000F0C0CFA03F7BC4305FA03FC4CEA04044A
:1040200091F803C0BCF1280F06D14FF0010C0CFA37
:1040300000FCC2F814C00AE091F803C0BCF1480FBC
:1040400005D14FF0010C0CFA00FCC2F810C0401C66
:104050000828D1D31460B1F800C0BCF1FF0F34DDE3
:10406000546800202EE000F1080C4FF0010808FA17
:104070000CF3B1F800C00CEA03069E4221D1830084
:104080004FF00F0C0CFA03F7BC4305FA03FC4CEAA3
:10409000040491F803C0BCF1280F05D100F1080C0D
:1040A00008FA0CF8C2F8148091F803C0BCF1480F6C
:1040B00007D100F1080C4FF0010808FA0CF8C2F81B
:1040C0001080401C0828CED35460BDE8F0814FF624
:1040D000FF710180022181700421C1707047024686
:1040E000002093680B400BB1012000E000207047D6
:1040F0000146886880B2704702460020D3680B40B2
:104100000BB1012000E0002070470146C86880B272
:10411000704701617047416170470AB1016100E079
:1041200041617047C16070474FF480320A43826139
:104130008161826182698269704702460020434B37
:1041400018684FF68073184040EA021008433F4B4E
:10415000186070473E49C8617047F0B50A460023B1
:1041600000240021002500F00046B6F1004F02D1E6
:10417000364EF16901E0354E7168C0F3034583B2F4
:1041800000F44016B6F5401F08D121F070612F4EA3
:10419000766826F070662D4F7E6012E000F480167F
:1041A000B6F5801F06D1032606FA05F4A14341F0B7
:1041B000706106E0460D360103FA06F6B14341F0A0
:1041C000706122B1460D360103FA06F6314300F064
:1041D0000046B6F1004F02D11C4EF16101E01B4ECA
:1041E0007160F0BD30B500228B071C0F0F2303FA5E
:1041F00004F2164B08338C1053F824309343134CBD
:1042000008348D1044F8253023468C1053F82430A0
:104210008C07240F00FA04F423430C4C08348D104F
:1042200044F8253030BD0A49DC3108607047000091
:1042300000080140000C0140001001400014014042
:1042400000180140001C0140002001400000014016
:10425000000020420E49086070470D4948607047D1
:104260000B49886070474AF6AA20094908607047E0
:104270004CF6CC4006490860704701460020044ACD
:10428000D2680A400AB1012000E000207047000017
:104290000030004010B50121080700F003FA0021AA
:1042A0004FF0805000F0FEF910BD2A4908627047B7
:1042B00028490861704701460020274A106820F00D
:1042C000E0000843106070472249A0310860704741
:1042D00010B502460020204B186820F00300104360
:1042E00018601E4B1B6843F004031C4C236001291B
:1042F00001D130BF00E020BF184B1B6823F004033E
:10430000164C236010BD1448006840F004001249A8
:1043100008600846006840F0020008600F48006826
:1043200040F004000D49086000BF00BF30BF704777
:1043300001460020084A52680A400AB1012000E004
:10434000002070470449096841EA8001024A11606F
:104350007047000000000E420070004010ED00E0C9
:10436000E648006840F00100E449086008464068FB
:10437000E3490840E149486008460068E1490840CF
:10438000DE4908600846006820F48020086008467E
:10439000406820F4FE0048604FF41F008860002051
:1043A000C8627047D549096821F48031D34A116049
:1043B0001146096821F480211160B0F5803F03D0D7
:1043C000B0F5802F0ED106E0CC49096841F4803168
:1043D000CA4A116007E0C949096841F4A021C74AE7
:1043E000116000E000BF00BF704710B50146002219
:1043F000002300204A11012A02D1C04C236806E0A4
:10440000022A02D1BD4C236A01E0BC4C636A01F070
:104410001F02012494401C400CB1012000E0002048
:1044200010BD38B5002000900024002500BF3120C9
:10443000FFF7DBFF05460098401C00900098B0F5A0
:10444000A06F01D0002DF2D03120FFF7CEFF08B1D0
:10445000012400E00024204638BD01460020A74A80
:10446000106820F0F80040EAC10010607047A649CB
:104470000860704702460020A04B586820F4741072
:1044800042EA010318439D4B586070479E490866F5
:10449000704702460020994BD86A9C4B184042EA6C
:1044A00001031843954BD862704701460020934A98
:1044B000506820F003000843506070478F48406800
:1044C00000F00C007047014600208C4A506820F034
:1044D000F00008435060704701460020874A50684A
:1044E00020F4E06008435060704701460020834A92
:1044F000506820F4605040EAC1005060704729B114
:104500007E4A527A02437D4B5A7204E07B4A527AC9
:1045100082437A4B5A7270477B49D83108607047A2
:1045200001460020754A506820F44040084350601E
:1045300070470021714A20321170704A82F82010B1
:10454000012802D004280AD104E001216B4A20325C
:10455000117005E00521694A2032117000E000BFAA
:1045600000BF70476A49086070476449096A01439F
:10457000624A11627047664944390860704770B5F5
:10458000002100230024002200255C4E766806F0FE
:104590000C0121B1042905D0082921D105E05D4E87
:1045A000066020E05B4E06601DE0544E766806F41F
:1045B0007013524E766806F48034022606EB93435D
:1045C0001CB9554E5E43066009E04C4EF66A06F093
:1045D0000F06751C4F4EB6FBF5F65E43066002E013
:1045E0004C4E066000BF00BF444E766806F0F001F6
:1045F00009094A4E725C0668D64046603F4E7668AE
:1046000006F4E061090A454E725C4668D640866051
:104610003A4E766806F46051C90A404E725C4668AC
:10462000D640C660354E766806F44041890B3C4E54
:10463000725CC668B6FBF2F6066170BD29B12F4AFE
:10464000526902432D4B5A6104E02C4A526982435D
:104650002A4B5A61704729B1284A92690243274B75
:104660009A6104E0254A92698243244B9A6170471B
:1046700029B1224AD2690243204BDA6104E01F4A81
:10468000D26982431D4BDA61704729B11B4AD26857
:1046900002431A4BDA6004E0184AD2688243174B8F
:1046A000DA60704729B1154A12690243134B1A6147
:1046B00004E0124A12698243104B1A617047144990
:1046C0004039086070471049C86470470B49C87189
:1046D00070470A48406A40F0807008494862704755
:1046E00001460020054A92680A400AB1012000E014
:1046F0000020704701498872704700000010024096
:104700000000FFF8FFFFF6FE00004242F0FFFEFF50
:104710008004424200127A0000093D00A0000020FF
:10472000B000002010B50446FE48844208D10121A3
:10473000C014FFF7AAFF0021E014FFF7A6FFC4E0B2
:10474000B4F1804F08D101210846FFF7ABFF0021EB
:104750000120FFF7A7FFB8E0F348844208D1012108
:104760000220FFF79FFF00210220FFF79BFFACE034
:10477000EE48844208D101210420FFF793FF002175
:104780000420FFF78FFFA0E0E948844208D101210F
:104790000820FFF787FF00210820FFF783FF94E040
:1047A000E448844208D101211020FFF77BFF00215B
:1047B0001020FFF777FF88E0DF48844208D101210D
:1047C0002020FFF76FFF00212020FFF76BFF7CE028
:1047D000DA48844208D101214014FFF756FF002136
:1047E0006014FFF752FF70E0D548844209D10121DF
:1047F000C804FFF74AFF00214FF40020FFF745FFF0
:1048000063E0D048844209D101210805FFF73DFF4C
:1048100000214FF48010FFF738FF56E0CA48844269
:1048200009D101214805FFF730FF00214FF40010A6
:10483000FFF72BFF49E0C548844208D10121402001
:10484000FFF730FF00214020FFF72CFF3DE0C0487C
:10485000844208D101218020FFF724FF002180201D
:10486000FFF720FF31E0BB48844208D101218015C9
:10487000FFF718FF0021A015FFF714FF25E0B64849
:10488000844209D101210804FFF7FFFE00214FF403
:104890008030FFF7FAFE18E0B048844209D10121C8
:1048A0004804FFF7F2FE00214FF40030FFF7EDFE61
:1048B0000BE0AB48844208D101218804FFF7E5FEF4
:1048C00000214FF48020FFF7E0FE10BD0022028897
:1048D000944B98420ED0994B98420BD0B0F1804F38
:1048E00008D0914B984205D0904B984202D0904B03
:1048F000984204D14FF68F731A404B881A438D4B60
:10490000984207D08C4B984204D04FF6FF431A4090
:10491000CB881A4302808B8883850B880385814B63
:1049200098420BD0854B984208D08B4B984205D0CB
:104930008A4B984202D08A4B984201D10B7A038667
:1049400001238382704770B5002400220023058C68
:104950004FF6FE7635400584028C8388048B4FF633
:104960008F752C40B51E2C400D882C43751E2A4097
:104970000D892A434D882A436A4DA8420BD06F4DBA
:10498000A84208D0744DA84205D0744DA84202D068
:10499000734DA84213D14FF6F7752A404D892A432B
:1049A0004FF6FB752A408D882A434FF6FF652B4052
:1049B0004FF6FF552B408D892B43CD892B438380A8
:1049C0000483CD888586028470BD70B500240022E2
:1049D0000023058C4FF6EF7635400584028C8388E2
:1049E000048B48F6FF752C404FF6FF452C400D8890
:1049F0004FF6FF7606EA05252C434FF6DF752A4071
:104A00000D8906EA05152A434D8806EA05152A434D
:104A1000444DA84202D0494DA8421DD14FF67F75A2
:104A20002A404D894FF6FF7606EA05152A434FF6D0
:104A3000BF752A408D8806EA05152A434FF6FF35D3
:104A40002B404FF2FF752B408D8906EA85052B43DD
:104A5000CD8906EA85052B4383800483CD880587AD
:104A6000028470BD70B5002400220023058C4FF62F
:104A7000FF6635400584028C8388848B4FF68F75E2
:104A80002C404FF6FC752C400D882C434FF6FF55FB
:104A90002A400D894FF6FF7606EA05252A434D8800
:104AA00006EA05252A431F4DA84202D0234DA842FD
:104AB0001DD14FF2FF752A404D894FF6FF7606EA69
:104AC00005252A434FF6FF352A408D8806EA05253D
:104AD0002A434EF6FF752B404DF6FF752B408D890E
:104AE00006EA05152B43CD8906EA05152B4383807D
:104AF0008483CD888587028470BD70B50022002331
:104B00000024058C4EF6FF7635400584038C84889E
:104B1000828B48F6FF752A404FF6FF452A400D88E4
:104B200020E00000002C014000040040000800408C
:104B3000000C004000100040001400400034014010
:104B4000004C01400050014000540140001800405A
:104B5000001C004000200040004001400044014093
:104B6000004801404FF6FF7606EA05252A434DF638
:104B7000FF752B400D8906EA05352B434D8806EA63
:104B800005352B43FA4DA84202D0FA4DA84208D170
:104B90004BF6FF752C408D894FF6FF7606EA85159A
:104BA0002C4384808283CD88A0F84050038470BD5C
:104BB000828B4FF2FF331A408283828B4FF6FF7352
:104BC00003EA01231A4382837047F0B50C46154669
:104BD000002200210026078C4EF6FF7C07EA0C0716
:104BE0000784828B018C4FF6FF7707EA043640F684
:104BF000FF473A404FF6FF7707EA05273A434FF65B
:104C0000FF7707EA03373A43D94FB8420ED0D94F5E
:104C1000B8420BD0B0F1804F08D0D74FB84205D082
:104C2000D64FB84202D0D64FB84206D14DF6FF77E4
:104C3000394046F48057394305E047F6FF5739407D
:104C400044F48057394382830184F0BD828B4FF650
:104C5000F3731A408283828B0A4382837047F0B5D4
:104C60000C461546002200210026078C4FF6FF6CEB
:104C700007EA0C070784828B018C4FF6FF7707EA5F
:104C800004264FF60C773A404FF6FF7707EA0317F2
:104C90002F433A43B64FB8420ED0B64FB8420BD06E
:104CA000B0F1804F08D0B44FB84205D0B34FB842EE
:104CB00002D0B34FB84206D14FF6FF57394046F401
:104CC0008077394305E04FF2FF57394044F480774D
:104CD000394382830184F0BD028B4FF2FF331A40C7
:104CE0000283028B4FF6FF7303EA01231A43028308
:104CF0007047F0B50C461546002200210026078CAF
:104D00004FF6EF7C07EA0C070784028B018C4FF605
:104D1000FF7707EA041640F6FF473A404FF6FF7761
:104D200007EA03373A434FF6FF7707EA05273A4386
:104D30008F4FB8420ED08F4FB8420BD0B0F1804F9A
:104D400008D08D4FB84205D08C4FB84202D08C4F5E
:104D5000B84206D14FF6DF77394046F010073943A5
:104D600005E04FF65F77394044F01007394302837E
:104D70000184F0BD028B4FF6F3731A400283028B5D
:104D80000A4302837047F0B50C4615460022002105
:104D9000068C4FF6FE773E400684028B018C4FF660
:104DA0000C7632407E1C06EA03162E433243704EC8
:104DB000B0420ED06F4EB0420BD0B0F1804F08D051
:104DC0006D4EB04205D06D4EB04202D06C4EB04236
:104DD00006D14FF6FD76314044F00106314305E03F
:104DE0004FF6F576314044F00106314302830184E9
:104DF000F0BD70B505460C465D4885420ED05D4855
:104E000085420BD0B5F1804F08D05B48854205D074
:104E10005A48854202D05A48854200D100E000BF7E
:104E2000208850B92389A28861882846FFF7ABFF04
:104E3000E1882846FFF79EFF25E0208804280AD154
:104E40002389A28861882846FFF753FFE188284616
:104E5000FFF742FF17E0208808280AD12389A2889B
:104E600061882846FFF7FBFEE1882846FFF7EEFE43
:104E700009E02389A28861882846FFF7A6FEE18819
:104E80002846FFF795FE70BD2DE9F04105460C461A
:104E900000260127608808B9022600E00026A088C5
:104EA000012801D1022700E001272088A0B9238929
:104EB000A28861882846FFF766FFE1882846FFF749
:104EC00059FF23893A4631462846FFF712FFE18809
:104ED0002846FFF701FF13E02389A288618828464E
:104EE000FFF707FFE1882846FFF7F6FE23893A46D9
:104EF00031462846FFF747FFE1882846FFF73AFF8B
:104F0000BDE8F0810A884B881A438B881A43CB8806
:104F10001A430B891A434B891A438B891A43A0F809
:104F2000442070474FF6FF71818000210180C180CD
:104F30004180017270470021018041808180C180E1
:104F4000018141818181C1817047002101804180BF
:104F5000012181800021C1800181704700210180F1
:104F600041808180C1800181418181817047000041
:104F7000002C0140003401400004004000080040C3
:104F8000000C004021B1028842F00102028004E0DE
:104F900002884FF6FE731A400280704731B1B0F8B4
:104FA000442042F40042A0F8442005E0B0F8442038
:104FB000C2F30E02A0F8442070471AB183890B4354
:104FC000838102E083898B438381704781827047AC
:104FD00041EA0203A0F8483070471AB183890B43B5
:104FE000838102E083898B438381704701894FF677
:104FF000F8721140018170470A46002101894FF67D
:105000008F73194011430181704730B504460D4636
:1050100029462046FFF7F0FF208940F00700208155
:1050200030BD2DE9F04104460D4616461F46602D61
:1050300006D13B46012231462046FFF75AFE05E0E5
:105040003B46012231462046FFF79DFE2946204679
:10505000FFF7D2FF208940F007002081BDE8F081F2
:1050600030B50C4600210189C9B24FF6FF7505EA3B
:105070000325154325432943018130BD2DE9F04126
:1050800005460E4617469846002443463A463146A2
:105090002846FFF7E5FF2C894FF6F870044044F0EE
:1050A00007044FF68F70044044F070042C81BDE873
:1050B000F081F0B504460D4616461F463B46324683
:1050C00029462046FFF7CCFF208940F4804020810C
:1050D000F0BD0185828270470A46002101884FF6A3
:1050E0008F731940114301807047F0B50C46154687
:1050F0001E460021002200230189028B038C4FF6FB
:10510000F877394021434FF6FC473A4040F2011707
:105110003A434FF6DD773B404FF6FF7707EA061735
:105120002F433B43018102830384F0BD0A460021E3
:10513000018B4FF68F7319401143018370470A4664
:105140000021018B48F6FF7319404FF6FF7303EA05
:1051500002231943018370470A460021818B4FF6D1
:105160008F7319401143818370470A460021818B58
:1051700048F6FF7319404FF6FF7303EA0223194301
:105180008183704721B1028842F08002028004E0EE
:1051900002884FF67F731A400280704721B18288DF
:1051A00042F00402828004E082884FF6FB731A40CA
:1051B0008280704721B1828842F00802828004E038
:1051C00082884FF6F7731A408280704721B1828837
:1051D00042F00102828004E082884FF6FE731A409A
:1051E000828070470A460021018B4FF6F773194001
:1051F0001143018370470A460021018B4FF2FF7370
:1052000019404FF6FF7303EA0223194301837047E5
:105210000A460021818B4FF6F773194011438183B1
:1052200070470A460021818B4FF2FF7319404FF6F9
:10523000FF7303EA02231943818370470A46002162
:10524000018B4FF6FB7319401143018370470A46E7
:105250000021018B4FF6FF3319404FF6FF7303EA2D
:1052600002231943018370470A460021818B4FF6C0
:10527000FB7319401143818370470A460021818BDB
:105280004FF6FF3319404FF6FF7303EA0223194329
:10529000818370470A460021018B4FF67F731940C6
:1052A0001143018370470A460021018BC1F30E01AF
:1052B0004FF6FF7303EA02231943018370470A463E
:1052C0000021818B4FF67F73194011438183704712
:1052D0000A460021818BC1F30E014FF6FF7303EAEA
:1052E00002231943818370470A460021018C4FF63F
:1052F000FD7319401143018470470A460021018C57
:105300004FF6F77319401143018470470A46002194
:10531000018C4FF6DF7319404FF6FF7303EA021357
:105320001943018470470A460021018C4FF67F73B0
:1053300019404FF6FF7303EA0213194301847047C3
:105340000A460021018C4FF6FF5319404FF6FF73B8
:1053500003EA02231943018470470A460021018CA5
:105360004FF2FF7319404FF6FF7303EA022319430C
:10537000018470470A460021018C4DF6FF731940E5
:105380004FF6FF7303EA023319430184704730B5C7
:10539000002301248C40A3B2048C9C430484048C1D
:1053A00002FA01F5ADB22C43048430BD30B50023C0
:1053B00004248C40A3B2048C9C430484048C02FA21
:1053C00001F5ADB22C43048430BD70B50346002016
:1053D00000241846183001258D40ACB21D8CA54321
:1053E0001D8409B1082909D100EB6100056825F089
:1053F000700505600568154305600EE00D1FC5F3D7
:105400004E052844056825F4E045056005684FF61B
:10541000FF7606EA02263543056070BD21B1028899
:1054200042F00202028004E002884FF6FD731A4047
:105430000280704721B1028842F00402028004E039
:1054400002884FF6FB731A400280704721B18288B0
:1054500042F08002828004E082884FF67F731A4017
:105460008280704702884FF6F7731A4002800288E4
:105470000A430280704782884FF68F731A408280F9
:1054800082880A438280704702894FF6F8731A4077
:10549000028102890A430281704702894FF67F73B5
:1054A0001A40028102890A43028170478184704751
:1054B0008185704781867047018770478187704773
:1054C000A0F84010704702884FF6FF431A40028050
:1054D00002880A43028070470146888E7047014661
:1054E000088F70470146888F70470146B1F8400029
:1054F00070470146888C70470146088D7047024608
:105500000020138A0B400BB1012000E000207047FF
:10551000CA430282704730B50246002000230024AF
:10552000158A05EA0103958905EA010413B10CB156
:10553000012000E0002030BDCA4302827047000015
:1055400010B50446FB48844209D101218803FFF7C6
:105550009CF800214FF48040FFF797F832E0F648BE
:10556000844209D101214804FFF79CF800214FF43F
:105570000030FFF797F825E0F048844209D1012177
:105580008804FFF78FF800214FF48020FFF78AF896
:1055900018E0EB48844209D10121C804FFF782F8E2
:1055A00000214FF40020FFF77DF80BE0E54884422E
:1055B00008D101210805FFF775F800214FF480108C
:1055C000FFF770F810BD2DE9F04786B005460E468E
:1055D0000024A24600BFA1460027B08900B100BF49
:1055E0002F462C8A4CF6FF700440F08804432C822E
:1055F000AC894EF6F3100440B088318908437189B4
:1056000008430443AC81AC8A4FF6FF400440B089A4
:105610000443AC8201A8FEF7B2FFC648874202D11C
:10562000DDF810A001E0DDF80CA0A88900F400402E
:1056300040B10AEBCA0000EB0A1031684900B0FB28
:10564000F1F807E00AEBCA0000EB0A1031688900A4
:10565000B0FBF1F86420B8FBF0F0040120096421EC
:1056600001FB1089A88900F4004040B1322000EB12
:10567000C900B0FBF1F000F00700044308E032205D
:1056800000EB09106421B0FBF1F000F00F000443BF
:105690002C8106B0BDE8F0874FF41651016000215F
:1056A0008180C18001810C2141810021818170476D
:1056B00010B502460020108A4FF2FF0318400B88F5
:1056C0004C8823438C882343CC882343184310827F
:1056D00010BD0021018041808180C180704721B1CF
:1056E000828942F40052828104E082894DF6FF7380
:1056F0001A4082817047F0B5034600240026002539
:10570000002040F66A17B94200D100BF1846C1F325
:10571000421401F01F06012707FA06F5012C01D1FA
:105720000C3004E0022C01D1103000E014301AB12A
:1057300007682F43076002E00768AF430760F0BDCA
:105740001AB1838A0B43838202E0838A8B4383826C
:105750007047028A4FF6F0731A400282028A0A43A7
:105760000282704782894FF2FF731A4082818289D8
:105770000A438281704721B1828942F0020282810C
:1057800004E082894FF6FD731A4082817047028AD5
:105790004FF6DF731A400282028A0A430282704780
:1057A00021B1028A42F48042028204E0028A4BF66E
:1057B000FF731A4002827047C1F30802828070476B
:1057C00001468888C0F308007047818941F00101D3
:1057D00081817047028BD2B20283028B42EA01229E
:1057E00002837047028B02F47F420283028B0A43DA
:1057F0000283704721B1828A42F02002828204E053
:10580000828A4FF6DF731A408282704721B1828A02
:1058100042F01002828204E0828A4FF6EF731A404F
:105820008282704721B1828A42F00802828204E0BB
:10583000828A4FF6F7731A408282704721B18289BB
:1058400042F40042828103E08289C2F30E02828127
:10585000704721B1828A42F40062828204E0828A27
:105860004FF2FF731A4082827047828A4FF6FB73B1
:105870001A408282828A0A438282704721B1828AD8
:1058800042F00202828204E0828A4FF6FD731A40DF
:105890008282704702460020B1F5007F00D100BF30
:1058A00013880B400BB1012000E00020704701F489
:1058B0000072B2F5007F00D100BFCA43028070477A
:1058C00070B50246002400230025002040F66A1629
:1058D000B14200D100BFC1F3421501F01F03012600
:1058E00006FA03F3012D02D19689334006E0022D1A
:1058F00002D1168A334001E0968A33400C12012609
:1059000006FA04F41688344013B10CB1012000E00B
:10591000002070BD10B50022002340F66A14A14299
:1059200000D100BF0A1201249440A3B2DC430480DA
:1059300010BD000000380140004400400048004015
:10594000004C00400050004008480047FEE7FEE7DA
:10595000FEE7FEE7FEE7FEE7FEE7FEE7FEE7FEE71F
:1059600003480449044A054B704700002101000820
:10597000880B002088110020880D0020880D002051
:105980001CB50020019000907C48006840F48030F5
:105990007A49086000BF7948006800F40030009040
:1059A0000198401C0190009818B90198B0F5A06FBB
:1059B000F1D17248006800F4003010B1012000906D
:1059C00001E0002000900098012832D16B48406827
:1059D0006A49486008464068486008464068486030
:1059E0000846406820F47C1048600846406840F44F
:1059F000981048600846006840F08070086000BF5A
:105A00005E48006800F000700028F9D05B484068EC
:105A100020F00300594948600846406840F0020001
:105A2000486000BF5548406800F00C000828F9D1D4
:105A300030E0FEF795FC0120FEF719FD00BF2120A4
:105A4000FEF7D3FC0028FAD01020FDF78BFF0220D0
:105A5000FDF774FF0020FEF736FD0020FEF745FD40
:105A60004FF48060FEF738FD4FF480110020FEF700
:105A700001FD0120FEF70AFD00BF3920FEF7B5FC4D
:105A80000028FAD00220FEF710FD00BFFEF716FD39
:105A90000828FBD11CBD10B5FFF772FF10BD10B573
:105AA0003648006840F00100344908600846406804
:105AB0003349084031494860084600683149084088
:105AC0002E4908600846006820F4802008600846D7
:105AD000406820F4FE0048604FF41F0088600020FA
